:020000040800F2
:100000001809002001010008CD1E0008411E00084B
:10001000C91E0008A1030008DD250008000000003B
:10002000000000000000000000000000E51F0008C4
:10003000D903000800000000091F0008BD220008C5
:100040001B0100081B0100081B0100081B01000820
:100050001B0100081B0100081B0100081B01000810
:100060001B0100081B0100081B0100081B01000800
:100070001B0100081B0100081B0100081B010008F0
:100080001B0100081B0100081B0100081B010008E0
:100090001B0100081B0100081B0100081B010008D0
:1000A0001B0100081B0100081B0100081B010008C0
:1000B0001B0100081B0100081B0100081B010008B0
:1000C0001B0100081B0100081B0100081B010008A0
:1000D0001B0100081B0100081B0100081B01000890
:1000E0001B0100081B0100081B010008DFF80CD0F1
:1000F00000F050F800480047C12900081809002006
:100100000648804706480047FEE7FEE7FEE7FEE7B1
:10011000FEE7FEE7FEE7FEE7FEE7FEE73123000825
:10012000ED000008202A04DB203A21FA02F0002129
:10013000704721FA02F3D040C2F1200291400843F7
:1001400019467047D2B201E000F8012B491EFBD2DC
:1001500070470022F6E710B513460A4604461946D2
:10016000FFF7F0FF204610BD30B50B4601460020DA
:100170002022012409E021FA02F59D4205D303FA69
:1001800002F5491B04FA02F52844151EA2F10102EA
:10019000F1DC30BD064C074D06E0E06840F001039D
:1001A00094E8070098471034AC42F6D3FFF7A2FF5B
:1001B0007C2B00089C2B000830B585B004460D460A
:1001C0000020019002900390049000BF6CB900BF22
:1001D0003748806940F004003549886108468069E5
:1001E00000F00400009000BF00BF00BF00BF6CB96A
:1001F00000BF2F48806940F004002D4988610846FF
:10020000806900F00400009000BF00BF00BF00BF85
:100210006CB900BF2648806940F480402449886159
:100220000846806900F48040009000BF00BF00BF16
:1002300000BF6CB900BF1E48806940F480401C4973
:1002400088610846806900F48040009000BF00BFCC
:1002500000BF34B91748406840F0080015494860AD
:1002600000E000BF144830F8140001900220029012
:100270000320049001200390104951F8240001A9A3
:1002800000F09EFA002002900D4830F81400019012
:100290000C4951F8240001A900F092FA0A4850F8DC
:1002A00024002860284601F059FC05B030BD00004C
:1002B0000010024000000140782B000824000020BC
:1002C0007A2B0008280000202000002010B586B0FE
:1002D00004460020029003900490059000BF6CB982
:1002E00000BF1C48806940F004001A498861084634
:1002F000806900F00400019000BF0FE0012C0DD1D7
:1003000000BF1448806940F0040012498861084623
:10031000806900F00400019000BF00BF00BF0E48DC
:1003200030F8140002900120039000200490032074
:1003300005900A4951F8240002A900F041FA064A42
:1003400032F81410054A52F82400002200F0CAFBCB
:1003500006B010BD00100240742B000818000020E9
:1003600010B50446044A32F81410044A52F8240026
:10037000012200F0B7FB10BD742B0008180000200C
:1003800010B50446044A32F81410044A52F8240006
:1003900000F0A4FB10BD0000742B00081800002022
:1003A00000BFFEE7F0B505460E460024AF1905E094
:1003B00015F8011BA0B202F0F8F80446BD42F7D3CD
:1003C000A0B2002102F0F1F804462046002102F01C
:1003D000ECF804462046F0BD7047000070B586B0CA
:1003E0000446002500200590002600F0D3F90B48B4
:1003F000001B850A002001900394012002900495BF
:1004000005A901A800F0F8F8064600F061F916B158
:10041000012006B070BD0020FBE70000008001084D
:1004200010B500F0B7F900BF34200349C86000BF21
:1004300000F04EF910BD0000002002402DE9F0410F
:1004400004460E461746002500F0A4F900BF15E04B
:1004500056F825C0624600232146022000F042F9EA
:1004600048B956F825102068884202D00220BDE81D
:10047000F081241D01E00320F9E76D1CBD4202D28A
:1004800003488442E4D900F023F90020EFE700009C
:10049000FC7F01080021074AD1610749096941F041
:1004A0000401054A11611146096941F040011161D9
:1004B0007047000048000020002002400021074A49
:1004C000D1610749096941F00201054A11611146EC
:1004D0004861096941F040011161704748000020FE
:1004E000002002400022054BDA61054A126942F001
:1004F0000102034B1A610180704700004800002090
:10050000002002401748C06800F0100028B11648CB
:10051000C06940F002001449C8611248C06800F088
:10052000040028B11048C06940F001000E49C861BC
:100530000C48C06900F0010068B10B48C06940F088
:1005400004000949C86100BF0648C06920F00100E5
:100550000449C86100BF00BF14200249C86000BF41
:1005600070470000002002404800002070B504469B
:1005700000F0BEFA054609E0601C38B124B100F075
:10058000B7FA401BA04201D9032070BD1248C068D1
:1005900000F001000028EFD10F48C06800F02000F3
:1005A00020B100BF20200C49C86000BF0A48C068C5
:1005B00000F0100048B90848C06800F0040020B9F5
:1005C0000548C06900F0010018B1FFF79BFF01204A
:1005D000DBE70020D9E700000020024031B500240D
:1005E00000F086FA044600BF00F082FA001B009972
:1005F0008842F9D338BD00002DE9F04104460E468B
:100600000127002500BF3048007E012802D10220CA
:10061000BDE8F08101202C49087600BF206802283F
:1006200014D14CF25030FFF7A1FF002844D1012033
:10063000FFF730FF4CF25030FFF798FF0746234892
:10064000006920F004002149086135E04CF2503087
:10065000FFF78CFF80BB206802280ED16068FFF78F
:1006600019FF4CF25030FFF781FF07461748006929
:1006700020F00400154908611EE04FF0FF303060A3
:10068000A56812E02846FFF719FF4CF25030FFF73B
:100690006DFF07460D48006920F002000B49086114
:1006A0000FB1356007E005F58065D4E9021001EB74
:1006B0008020A842E6D800BF00BF0020024908768B
:1006C00000BF3846A4E70000480000200020024098
:1006D0000348006940F0800001490861002070472C
:1006E000002002402DE9FE4F05468B4617469846EE
:1006F000012600240020029000BF2448007E01282B
:1007000002D10220BDE8FE8F01202049087600BFFB
:100710004CF25030FFF72AFF064686BB012D02D16E
:100720000120029006E0022D02D10220029001E099
:100730000420029000241EE02201B946C246484629
:100740005146FFF7EFFC80B20190022000FB04B09D
:1007500000900199FFF7C6FE4CF25030FFF706FFFC
:1007600006460B48006920F001000949086106B1FE
:1007700004E0601CC4B202988442DDDB00BF00BF0D
:1007800000200249087600BF3046BBE74800002041
:10079000002002400748006900F0800028B10648A8
:1007A000044948600548486001E001207047002086
:1007B000FCE700000020024023016745AB89EFCD34
:1007C0002DE9F84703460024002000258446002731
:1007D00000226EE14FF0010808FA02F4D1F800801F
:1007E00008EA0400A0427DD1DFF8D0A2D1F804804D
:1007F000A8EB0A09D0453AD014DCB8F1030F50D069
:1008000009DCB8F1000F31D0B8F1010F1CD0B8F1FC
:10081000020F49D120E0B8F1110F18D0B8F1120F32
:1008200042D11EE0B9F5881F25D006DCB9F5803F1E
:1008300020D0B9F5801F37D11AE0B9F5001F18D0C4
:10084000B9F5041F30D117E0D1F80CC02DE0D1F874
:100850000C8008F1040C28E0D1F80C8008F1080C99
:1008600023E0D1F80C8008F10C0C1EE000BF00BFA3
:1008700000BF00BF00BF00BFD1F80880B8F1000F73
:1008800002D14FF0040C0BE0D1F80880B8F1010F51
:1008900003D14FF0080C1C6102E04FF0080C5C61C2
:1008A00003E04FF0000C00E000BF00BFFF2801D8BC
:1008B000984601E003F104084646FF2802D84FEAB3
:1008C000820803E0A2F108084FEA88084746D6F8F4
:1008D00000804FF00F0909FA07F928EA09080CFA15
:1008E00007F900E088E048EA0908C6F80080D1F876
:1008F000048008F08058B8F1805F7DD100BFDFF838
:10090000C081D8F8188048F00108DFF8B491C9F820
:100910001880C846D8F8188008F00108CDF8008083
:1009200000BF00BF4FEAB9384FEA920958F8295082
:100930004FEA82784FEA18794FF00F0808FA09F861
:1009400025EA0805DFF87C81434502D14FF0000815
:1009500016E0DFF87481434502D14FF001080FE043
:10096000DFF86881434502D14FF0020808E0DFF864
:100970006081434502D14FF0030801E04FF00408C5
:100980004FEA82794FEA197908FA09F848EA050529
:10099000DFF840814FEA920948F82950D1F80480E5
:1009A00008F48038B8F5803F0AD1DFF82C81D8F8F8
:1009B000008048EA0008DFF82091C9F8008009E0CB
:1009C000DFF81481D8F8008028EA0008DFF80891E1
:1009D000C9F80080D1F8048008F40038B8F5003F69
:1009E00010D1DFF8F48008F10408D8F8008048EA54
:1009F0000008DFF8E49000E05AE009F10409C9F8C2
:100A000000800DE0DFF8D08008F10408D8F80080FD
:100A100028EA0008DFF8C09009F10409C9F800804D
:100A2000D1F8048008F48018B8F5801F0ED1DFF8E3
:100A3000A88008F10808D8F8008048EA0008DFF824
:100A4000989009F10809C9F800800DE0DFF8888066
:100A500008F10808D8F8008028EA0008DFF8789044
:100A600009F10809C9F80080D1F8048008F40018D9
:100A7000B8F5001F0ED1DFF8608008F10C08D8F837
:100A8000008048EA0008DFF8509009F10C09C9F825
:100A900000800DE0DFF8408008F10C08D8F80080F5
:100AA00028EA0008DFF8309009F10C09C9F8008045
:100AB000521C102AFFF48EAEBDE8F887000011101A
:100AC0000010024000080140000C014000100140ED
:100AD000001401400800014000040140C2684A407F
:100AE000C26070470AB1016101E00B040361704705
:100AF00001480068704700000000002002480068BC
:100B0000401C0149086070470000002010B50848EB
:100B1000006840F0100006490860032000F05CF80F
:100B20000F2000F007F800F017F8002010BD0000BB
:100B30000020024070B5044600F07CFA4FF47A7150
:100B4000B0FBF1F5284600F0EFFF00222146501ED1
:100B500000F003F8002070BD70472DE9F05F80467B
:100B60000D461646002701F0B3F9074639462A46D6
:100B7000334601F00700C0F1070ABAF1040F02D9A9
:100B80004FF0040A01E0C0F1070AD14600F1040A5F
:100B9000BAF1070F02D24FF0000A01E0A0F1030AF8
:100BA000D4464FF0010A0AFA09FAAAF1010A0AEA40
:100BB000020A0AFA0CFA4FF0010B0BFA0CFBABF12C
:100BC000010B0BEA030B4AEA0B042146404601F0F5
:100BD00087F9BDE8F09F000000BF00F00702064B58
:100BE00019684FF6FF031940044B0B4343EA0221F7
:100BF000014B196000BF70470CED00E00000FA05E2
:100C000070B504460D460026F748006800F007005E
:100C1000A84270D2F448006820F007002843F24947
:100C200008600846006800F00700A84201D00120D3
:100C300070BD207800F00200022807D1EB48406820
:100C400020F0F000A1680843E8494860207800F0EF
:100C5000010000286FD0606801282DD120200103F9
:100C600091FAA1F1B1FA81F108430121B1EB601FC2
:100C700002D1DE4800680FE02020010391FAA1F1C3
:100C8000B1FA81F108430221B1EB601F02D1D748CC
:100C9000006A01E0D548406A20210A0392FAA2F2D4
:100CA000B2FA82F2114301F01F0201219140084083
:100CB000002861D10120BBE7606802282DD12020E7
:100CC000010591FAA1F1B1FA81F108430121B1EBDB
:100CD000601F02D1C548006810E02020010591FA8C
:100CE000A1F1B1FA81F108430221B1EB601F03D1F8
:100CF000BE48006A02E083E0BC48406A20210A0541
:100D000092FAA2F2B2FA82F2114301F01F0201211B
:100D10009140084078BB01208AE72020022191FA07
:100D2000A1F1B1FA81F108430121B1EB601F03D1B8
:100D3000AE48006810E05BE12020022191FAA1F1A9
:100D4000B1FA81F108430221B1EB601F02D1A7483B
:100D5000006A01E0A548406A2021022292FAA2F22C
:100D6000B2FA82F2114301F01F02012191400840C2
:100D700008B901205CE7FFE79C48406820F00300C9
:100D80006168084399494860FFF7B2FE064660680B
:100D9000012810D108E0FFF7ABFE801B41F288313B
:100DA000884201D9032043E79048406800F00C00D6
:100DB0000428F0D11CE16068022810D108E0FFF798
:100DC00097FE801B41F28831884201D903202FE72A
:100DD0008648406800F00C000828F0D108E108E0DF
:100DE000FFF786FE801B41F28831884201D903203B
:100DF0001EE77E48406800F00C000028F0D1F7E0C4
:100E0000207800F00200022807D17848406820F0DE
:100E1000F000A168084375494860207800F001009F
:100E200000286ED0606801282CD12020010391FA9F
:100E3000A1F1B1FA81F108430121B1EB601F02D1A8
:100E40006A4800680FE02020010391FAA1F1B1FA8D
:100E500081F108430221B1EB601F02D16348006AAF
:100E600001E06248406A20210A0392FAA2F2B2FA33
:100E700082F2114301F01F0201219140084088BB1A
:100E80000120D5E6606802282DD12020010591FAC5
:100E9000A1F1B1FA81F108430121B1EB601F02D148
:100EA000524800680FE02020010591FAA1F1B1FA43
:100EB00081F108430221B1EB601F02D14B48006A67
:100EC00001E04A48406A20210A0592FAA2F2B2FAE9
:100ED00082F2114301F01F0201219140084008B93C
:100EE0000120A5E62DE02020022191FAA1F1B1FA1E
:100EF00081F108430121B1EB601F03D13B48006839
:100F000010E061E02020022191FAA1F1B1FA81F113
:100F100008430221B1EB601F02D13448006A01E0AE
:100F20003248406A2021022292FAA2F2B2FA82F2F8
:100F3000114301F01F0201219140084008B901202E
:100F400076E62A48406820F0030061680843274994
:100F50004860FFF7CDFD06466068012810D108E023
:100F6000FFF7C6FD801B41F28831884201D903207A
:100F70005EE61E48406800F00C000428F0D123E033
:100F80006068022810D108E0FFF7B2FD801B41F233
:100F90008831884201D903204AE61448406800F0AD
:100FA0000C000828F0D10FE008E0FFF7A1FD801B3E
:100FB00041F28831884201D9032039E60B48406864
:100FC00000F00C000028F0D10748006820F007006E
:100FD0002843054908600846006800F00700A84259
:100FE00006D0012024E6000000200240001002404C
:100FF000207800F00400042807D10D48406820F450
:10100000E060E16808430A494860207800F0080081
:10101000082808D10648406820F46050216940EA59
:10102000C100034948600F20FFF784FD0020FFE561
:101030000010024010B500F045F80949496801F078
:10104000F001F02292FAA2F2B2FA82F2D140054AFD
:10105000515CC840044908600846006810BD0000A3
:1010600000100240642B00080400002010B5FFF7B8
:10107000E1FF0749496801F4E0614FF4E06292FA48
:10108000A2F2B2FA82F2D140024A515CC84010BDCD
:1010900000100240642B000810B5FFF7CBFF074992
:1010A000496801F460514FF4605292FAA2F2B2FA28
:1010B00082F2D140024A515CC84010BD001002408B
:1010C000642B0008F0B585B00FF28C0C9CE8E010A2
:1010D00001A8A0E8E01024A52D68009500210024B7
:1010E000002200230020214D696801F00C056DB33A
:1010F000042D02D0082D28D101E01D4828E001F47C
:1011000070154FF4701696FAA6F6B6FA86F6F54004
:1011100001AE735D01F4803595B1144D6D6805F431
:1011200000354FF4003696FAA6F6B6FA86F6F54084
:101130001DF805400E4DB5FBF4F505FB03F202E08A
:101140000C4D03FB05F2104602E000BF084800BF4B
:1011500000BF05B0F0BD0000020304050607080942
:101160000A0B0C0D0E0F10100102000000100240BF
:1011700000127A0000093D0038B5044600252078A9
:1011800000F0010000286ED0F748406800F00C0025
:1011900004280CD0F448406800F00C0008283AD12C
:1011A000F148406800F48030B0F5803F33D1202012
:1011B000010391FAA1F1B1FA81F108430121B1EBE8
:1011C000601F02D1E84800680FE02020010391FA77
:1011D000A1F1B1FA81F108430221B1EB601F02D104
:1011E000E148006A01E0E048406A20210A0392FADF
:1011F000A2F2B2FA82F2114301F01F0201219140E2
:1012000008400028BFD060680128BCD0606805286D
:10121000B9D0012038BD00BFD348006820F4803029
:10122000D14908600846006820F48020086000BFAB
:10123000FFF75EFC054608E0FFF75AFC401B41F251
:101240008831884201D90320E4E72020010391FA84
:10125000A1F1B1FA81F108430121B1EB601F03D183
:10126000C148006810E0B6E02020010391FAA1F126
:10127000B1FA81F108430221B1EB601F02D1BA48F3
:10128000006A01E0B848406A20210A0392FAA2F2FB
:10129000B2FA82F2114301F01F020121914008408D
:1012A0000028C9D100BFB048006820F48030AE49A2
:1012B0000860606801280AD10846006820F4802090
:1012C00008600846006840F4803008600CE0606800
:1012D000052803D12079A449887005E0A248006858
:1012E00020F48020A049086000BF6068C8B3FFF701
:1012F000FFFB054608E0FFF7FBFB401B41F288318E
:10130000884201D9032085E72020010391FAA1F149
:10131000B1FA81F108430121B1EB601F02D192487B
:1013200000680FE02020010391FAA1F1B1FA81F1E8
:1013300008430221B1EB601F02D18B48006A01E033
:101340008948406A20210A0392FAA2F2B2FA82F294
:10135000114301F01F020121914008400028CAD02A
:1013600039E0FFE7FFF7C4FB054608E0FFF7C0FBE5
:10137000401B41F28831884201D903204AE72020EE
:10138000010391FAA1F1B1FA81F108430121B1EB16
:10139000601F02D1744800680FE02020010391FA19
:1013A000A1F1B1FA81F108430221B1EB601F02D132
:1013B0006D48006A01E06C48406A20210A0392FAF5
:1013C000A2F2B2FA82F2114301F01F020121914010
:1013D00008400028CAD1207800F0020002284ED12F
:1013E0006148406800F00C0050B15F48406800F070
:1013F0000C00082844D15C48406800F4803078BB79
:101400002020022191FAA1F1B1FA81F108430121D2
:10141000B1EB601F02D1544800680FE02020022188
:1014200091FAA1F1B1FA81F108430221B1EB601FF9
:1014300002D14D48006A01E04B48406A2021022257
:1014400092FAA2F2B2FA82F2114301F01F020121D4
:101450009140084028B12069012802D00120D9E636
:101460000EE04148006820F0F800F82292FAA2F25B
:10147000B2FA82F26169914008433B49086095E005
:10148000206970B3012191FAA1F0B0FA80F0374AD7
:1014900042F82010FFF72CFB054606E0FFF728FB7B
:1014A000401B642801D90320B4E62020022191FAD0
:1014B000A1F1B1FA81F108430121B1EB601F02D122
:1014C0002948006810E02020022191FAA1F1B1FA28
:1014D00081F108430221B1EB601F03D12248006A69
:1014E00002E01EE02048406A2021022292FAA2F285
:1014F000B2FA82F2114301F01F020121914008402B
:101500000028CBD01848006820F0F800F82292FAA2
:10151000A2F2B2FA82F2616991400843124908606E
:1015200044E00020012191FAA1F1B1FA81F10F4AC2
:1015300042F82100FFF7DCFA054606E0FFF7D8FA8B
:10154000401B642801D9032064E62020022191FA7F
:10155000A1F1B1FA81F108430121B1EB601F07D17C
:101560000148006814E00000001002400000424200
:101570002020022191FAA1F1B1FA81F10843022160
:10158000B1EB601F02D1F948006A01E0F748406AF8
:101590002021022292FAA2F2B2FA82F2114301F061
:1015A0001F020121914008400028C7D1207800F097
:1015B0000800082846D1A06980B3012090FAA0F164
:1015C000B1FA81F1EA4A02EB8101C1F88004FFF728
:1015D0008FFA054606E0FFF78BFA401B642801D915
:1015E000032017E66020022191FAA1F1B1FA81F1FE
:1015F00008430121B1EB601F02D1DC48006810E014
:101600006020022191FAA1F1B1FA81F1084302218F
:10161000B1EB601F03D1D548006A02E013E0D34864
:10162000406A6021022292FAA2F2B2FA82F21143D7
:1016300001F01F020121914008400028CBD0012079
:10164000FEF7CCFF41E00020012191FAA1F1B1FAAF
:1016500081F1C74A02EB8101C1F88004FFF748FA23
:10166000054606E0FFF744FA401B642801D9032031
:10167000D0E56020022191FAA1F1B1FA81F108438D
:101680000121B1EB601F02D1B84800680FE0602073
:10169000022191FAA1F1B1FA81F108430221B1EBE3
:1016A000601F02D1B148006A01E0B048406A602181
:1016B000022292FAA2F2B2FA82F2114301F01F0260
:1016C0000121914008400028CCD1207800F004008E
:1016D00004287CD100BFA548C06940F08050A349D0
:1016E000C8610846C06900F08050009000BF00BF8C
:1016F000A048006840F480709E490860FFF7F8F940
:10170000054606E0FFF7F4F9401B642801D90320E1
:1017100080E59848006800F480700028F2D000BF8F
:101720000020012191FAA1F1B1FA81F1904A02EB76
:101730008101C1F800040021042090FAA0F0B0FA61
:1017400080F002EB8000C0F8001400BFFFF7D0F972
:10175000054608E0FFF7CCF9401B41F2883188428A
:1017600001D9032056E54020022191FAA1F1B1FAF6
:1017700081F108430121B1EB601F02D17B48006871
:101780000FE04020022191FAA1F1B1FA81F1084362
:101790000221B1EB601F02D17448006A01E0734876
:1017A000406A4021022292FAA2F2B2FA82F2114376
:1017B00001F01F020121914008400028CAD100BF5A
:1017C000E068B0B90020012191FAA1F100E0B4E095
:1017D000B1FA81F1664A02EB8101C1F800040421EB
:1017E00091FAA1F1B1FA81F102EB8101C1F8000493
:1017F0002CE0E068012814D10020042191FAA1F125
:10180000B1FA81F15A4A02EB8101C1F800040121C9
:1018100091FAA1F0B0FA80F002EB8000C0F8001459
:1018200014E00020012191FAA1F1B1FA81F1504AAE
:1018300002EB8101C1F800040121042090FAA0F01C
:10184000B0FA80F002EB8000C0F8001400BFE0683E
:10185000012839D1FFF74CF9054608E0FFF748F9B0
:10186000401B41F28831884201D90320D2E4402054
:10187000022191FAA1F1B1FA81F108430121B1EB02
:10188000601F02D1394800680FE04020022191FA20
:10189000A1F1B1FA81F108430221B1EB601F02D13D
:1018A0003248006A01E03148406A4021022292FA3F
:1018B000A2F2B2FA82F2114301F01F02012191401B
:1018C00008400028CAD038E0FFF712F9054608E0C2
:1018D000FFF70EF9401B41F28831884201D90320FD
:1018E00098E44020022191FAA1F1B1FA81F1084374
:1018F0000121B1EB601F02D11C4800680FE04020BD
:10190000022191FAA1F1B1FA81F108430221B1EB70
:10191000601F02D11548006A01E01448406A402166
:10192000022292FAA2F2B2FA82F2114301F01F02ED
:101930000121914008400028CAD1E069002871D0F7
:101940000A48406800F00C0008286CD0E0690228C2
:101950006AD10021C00590FAA0F0B0FA80F0044AE4
:1019600042F82010FFF7C4F805460CE000100240D2
:101970000000424200700040FFF7BAF8401B6428A4
:1019800001D9032046E42020010591FAA1F1B1FA22
:1019900081F108430121B1EB601F02D1604800686A
:1019A0000FE02020010591FAA1F1B1FA81F108437D
:1019B0000221B1EB601F02D15948006A01E058488A
:1019C000406A20210A0592FAA2F2B2FA82F2114389
:1019D00001F01F020121914008400028CCD1206A6B
:1019E000B0F5803F07D14E48406820F40030A16830
:1019F00008434B494860D4E908010843484949680D
:101A000021F474110843464948600120010691FA07
:101A1000A1F1B1FA81F1434A42F82100FFF768F8D9
:101A2000054609E079E076E033E0FFF761F8401B16
:101A3000642801D9032007E42020010591FAA1F1CF
:101A4000B1FA81F108430121B1EB601F02D13448A2
:101A500000680FE02020010591FAA1F1B1FA81F1AF
:101A600008430221B1EB601F02D12D48006A01E05A
:101A70002B48406A20210A0592FAA2F2B2FA82F2B9
:101A8000114301F01F020121914008400028CCD0F1
:101A900043E000204FF0807191FAA1F1B1FA81F199
:101AA000204A42F82100FFF723F8054606E0FFF739
:101AB0001FF8401B642801D9032024E420200105DD
:101AC00091FAA1F1B1FA81F108430121B1EB601F54
:101AD00002D1134800680FE02020010591FAA1F11E
:101AE000B1FA81F108430221B1EB601F02D10C4829
:101AF000006A01E00A48406A20210A0592FAA2F22F
:101B0000B2FA82F2114301F01F0201219140084014
:101B10000028CCD101E0012030E400202EE40000B8
:101B2000001002400000424270B504462546681E7F
:101B3000B0F1807F01D301200FE0681E4FF0E0215B
:101B400048610F214FF0FF3000F0CAF900204FF03C
:101B5000E021886107200861002070BD10B50446AF
:101B60000CB9012010BDA06900B100E000BF94F8DD
:101B7000390028B9002084F83800204600F026F803
:101B8000022084F839002068C06820F400502168E1
:101B9000C860204600F0F8FB2068006920F49040FF
:101BA000216808612068406920F02A0021684861A6
:101BB0002068C06840F400502168C8600020E063DD
:101BC000012084F839000020CCE7000010B586B071
:101BD000044600BF1E48806940F004001C4988612B
:101BE0000846806900F00400019000BF00BF00BFFC
:101BF0000846806940F0040088610846806900F06A
:101C00000400019000BF00BF00BF0846806940F497
:101C1000804088610846806900F48040019000BFE0
:101C200000BF481502900220039001200490032079
:101C3000059002A90748FEF7C3FD4FF480600290AB
:101C40000020039002A90348FEF7BAFD06B010BDBC
:101C500000100240000801402DE9F04704460D46FF
:101C6000164699464FF0000894F83980B8F1010FF4
:101C700002D0B8F1120F69D105B116B90120BDE843
:101C8000F08700BF94F83800012801D10220F6E760
:101C9000012084F8380000BF0020E06394F8390088
:101CA000122803D1322084F8390002E0222084F87F
:101CB0003900A685E68535E0E08D401EE085A06808
:101CC000B0F5805F18D14B4600222021204600F05D
:101CD000EFFB08B10320D2E72F46206930B9206816
:101CE0004068C0F308003880AD1C1BE020684068E5
:101CF000C0B238806D1C15E04B46002220212046E2
:101D000000F0D6FB08B10320B9E7206920B92068AC
:101D1000406805F8010B05E02068406800F07F008E
:101D200005F8010BE08D0028C6DC94F83900322854
:101D300003D1122084F8390002E0012084F8390030
:101D400000BF002084F8380000BF98E7022096E723
:101D50002DE9F04704460D46164699464FF0000817
:101D600094F83980B8F1010F02D0B8F1220F65D193
:101D700005B116B90120BDE8F08700BF94F838001E
:101D8000012801D10220F6E7012084F8380000BFC5
:101D90000020E06394F83900222803D1322084F82F
:101DA000390002E0122084F83900A684E68428E095
:101DB000E08C401EE084A068B0F5805F14D14B46F3
:101DC00000228021204600F073FB08B10320D2E7F7
:101DD0002F463888C0F3080021684860206908B998
:101DE000AD1C0EE06D1C0CE04B460022802120460D
:101DF00000F05EFB08B10320BDE715F8010B216878
:101E00004860E08C0028D3DC4B460022402120466D
:101E100000F04EFB08B10320ADE794F839003228FA
:101E200003D1222084F8390002E0012084F839002F
:101E300000BF002084F8380000BF9CE702209AE72A
:101E400000BFFEE710B50848084948600021074870
:101E50008160C160016181610C2141610146002006
:101E6000FEF7AAF910BD00000094110068000020E0
:101E7000F0B5144A00250024002320E0B1FBF2F65F
:101E8000303606F0FF0C2E466D1C00F806C0B1FB84
:101E9000F2F602FB16110A26B2FBF6F26E1E865D02
:101EA000302E01D1012600E000260CB9012700E008
:101EB00000273E400EB1002500E0641C5B1C0A2B8D
:101EC000DCD3F0BD00CA9A3B00BFFEE770470000BC
:101ED00002480068C0F30220704700000CED00E0EB
:101EE00010B5002807DA0A07140E054A00F00F03A0
:101EF0001B1FD45403E00A07130E024A135410BDEB
:101F000018ED00E000E400E0704700002DE9F84320
:101F100004460E46904600250020306043460122CC
:101F200069462F48FFF798FE0746002F53D19DF8CA
:101F30000000182812D006DC012809D0022809D098
:101F400004281DD109E0412817D0612818D115E0D7
:101F5000802517E04FF4806514E013E0434601222A
:101F600069461F48FFF778FE28B99DF80000182839
:101F700001D1022500E0012704E000BF022701E0B3
:101F8000012700BF00BF9DF800002070802D22D3E4
:101F9000281D82B24346A11C1148FFF75DFE07468B
:101FA000C7B9A078E17881F0FF01884202D000250E
:101FB000012710E0281D205C4FEA0029681D205CE5
:101FC00081442946201DFEF7EDF9484503D0002540
:101FD000012700E0002535603846BDE8F8830000A1
:101FE00068000020704700001FB50020019002909B
:101FF000039000901CA000F0D9FB684600F0F0FAB6
:1020000004464FF49670FEF7E9FA002C15D125A08E
:1020100000F0CCFB2DA000F0C9FB364936A000F043
:10202000C5FB01A80099FFF723FF01A935A000F027
:10203000BDFB26A000F0BAFB14E0052C03D136A0AE
:1020400000F0B4FB0EE0042C03D142A000F0AEFB84
:1020500008E0022C03D145A000F0A8FB02E048A054
:1020600000F0A4FB1FBD000057616974696E672012
:10207000666F72207468652066696C6520746F20D5
:1020800062652073656E74202E2E2E202870726576
:1020900073732027612720746F2061626F72742927
:1020A0000D0A00002050726F6772616D6D696E6776
:1020B00020436F6D706C6574656420537563636550
:1020C000737366756C6C79210D0A00002D2D2D2D12
:1020D0002D2D2D2D2D2D2D2D2D2D2D2D2D2D2D2D30
:1020E0002D2D2D2D2D2D2D2D2D2D2D2D2D2D2D2D20
:1020F0002D0D0A00A8000020204E616D653A257361
:102100000D0A00002053697A653A257320427974DC
:1021100065730D0A0000000054686520696D6167F1
:10212000652073697A6520697320686967686572DC
:10213000207468616E2074686520616C6C6F7765CF
:1021400064207370616365206D656D6F7279210D18
:102150000A000000566572696669636174696F6E92
:10216000206661696C6564210D0A000041626F722E
:1021700074656420627920757365722E0D0A000003
:102180004661696C656420746F2072656365697669
:1021900065207468652066696C65210D0A00000081
:1021A00001B5084890F83900032803D101200549FA
:1021B00081F839006423012269460248FFF7C8FD0F
:1021C00008BD00006800002070B502460C460021E2
:1021D000002000231578302D3ED15578782D02D07F
:1021E0005578582D38D102212BE0555C412D02DB6A
:1021F000555C462D0BDD555C612D02DB555C662D73
:1022000005DD555C302D19DB555C392D16DC555C30
:10221000302D05DB555C392D02DC555C303D0AE084
:10222000555C412D05DB555C462D02DC555C373D88
:1022300001E0555C573D05EB031301E0002005E08C
:10224000491C0B2902D2555C002DCED100BF555C34
:102250009DBB2360012030E02AE0555C15B9236066
:10226000012024E0555C6B2D02D0555C4B2D04D130
:1022700019B19B022360012019E0555C6D2D02D03D
:10228000555C4D2D04D119B11B05236001200EE0D2
:10229000555C302D09DB555C392D06DC555C303D35
:1022A00003EB830605EB460301E0002004E0491C34
:1022B0000B2901D20128D0D100BF70BD10B5FEF7A7
:1022C0001DFC10BD00B58FB014210AA8FDF741FF19
:1022D00028216846FDF73DFF022000900020019074
:1022E000039001200490102005900020029002200D
:1022F0000790002108914FF4601109916846FEF79C
:102300003BFF08B100BFFEE70F200A9002200B90B0
:1023100000200C900E904FF480600D9002210AA8CE
:10232000FEF76EFC08B100BFFEE70FB000BD000075
:102330001148006840F001000F49086008464068F5
:102340000E4908400C494860084600680C4908409E
:10235000094908600846006820F4802008600846A3
:10236000406820F4FE0048604FF41F008860C803F6
:102370000449086070470000001002400000FFF8A8
:10238000FFFFF6FE08ED00E02DE9F04104460025D0
:102390002068006920F44050E16808432168086122
:1023A0002169A0680843616940EA01052068C068A6
:1023B00041F20C61884328432168C8602068406965
:1023C00020F44070A16908432168486137492068BA
:1023D000884234D1FEF760FE00EBC00101EB001033
:1023E00061688900B0FBF1F06421B0FBF1F6FEF703
:1023F00053FE00EBC00101EB001061688900B0FBE7
:10240000F1F7FEF749FE00EBC00101EB0010616837
:102410008900B0FBF1F06421B0FBF1F000EBC001EA
:1024200001EB0010A7EB8000322101EB00106421CA
:10243000B0FBF1F066F31F102168886033E0FEF70F
:1024400015FE00EBC00101EB001061688900B0FBD4
:10245000F1F06421B0FBF1F6FEF708FE00EBC001DD
:1024600001EB001061688900B0FBF1F7FEF7FEFD9B
:1024700000EBC00101EB001061688900B0FBF1F0D6
:102480006421B0FBF1F000EBC00101EB0010A7EB01
:102490008000322101EB00106421B0FBF1F066F303
:1024A0001F1021688860BDE8F081000000380140FD
:1024B0002DE9F04104460E4617461D464FF0000830
:1024C000FEF716FB80469FBB2BE0681C48B32DB17E
:1024D000FEF70EFBA0EB0800A84222D92068C068D6
:1024E00020F080002168C8602068C06820F02000CB
:1024F0002168C8602068C06820F480702168C860C6
:102500002068406920F0010021684861012084F8BA
:10251000390000BF002084F8380000BF0320BDE868
:10252000F081206800683040B04202D1012001E013
:1025300003E000200028C8D035E02AE0681C40B342
:102540002DB1FEF7D5FAA0EB0800A84221D92068EA
:10255000C06820F080002168C8602068C06820F052
:1025600020002168C8602068C06820F4807021685D
:10257000C8602068406920F001002168486101209E
:1025800084F8390000BF002084F8380000BF032021
:10259000C5E7206800683040B04201D1012000E06A
:1025A00000200028CAD10020B9E710B503460C4628
:1025B000194644F4807200BF4900520002F4807052
:1025C00000B1491C01F4803010B141F221004140BA
:1025D00002F480300028EFD088B210BD00BFFEE7C3
:1025E0002DE9F04F8BB006460020099081460790F8
:1025F0008046DFF8A8A1C7E0002700200890BDE0D2
:102600004FF47A720AA96648FFF780FC10B10228DD
:1026100074D197E04FF000090A9838B102280BD125
:102620000620FFF7BDFD4FF0020889E00620FFF706
:10263000B7FD0120089083E059488078B84203D064
:102640001520FFF7ADFD7AE0002F58D154480079EE
:1026500000284CD00025524C241D05E014F8012B15
:1026600028466D1C4F490A54207808B1642DF5D3D3
:10267000002228466D1C4B490A540025641C05E0C5
:1026800014F8012B28466D1C02A90A542078202832
:1026900001D0102DF4D3002228466D1C02A90A5443
:1026A00006A902A8FFF790FD4EF661213068884226
:1026B00011D9182001904FF48013012201A93A4842
:1026C000FFF746FB4FF48013012201A93648FFF7BC
:1026D0003FFB4FF005083148FDF780FE069830605B
:1026E0000620FFF75DFD4320FFF75AFD23E006209B
:1026F000FFF756FD01200890099021E02BE0DFF85C
:10270000A0B00BF1040B0A98820859465046FDF719
:1027100095FE28B90A9882440620FFF741FD07E09C
:102720001820FFF73DFD1820FFF73AFD4FF0040891
:102730000120FDF725FE781CC7B20120079000BFDD
:1027400000BF1AE01820FFF72BFD1820FFF728FD27
:102750004FF0020811E0079808B109F10109B9F139
:10276000050F06D91820FFF71BFD1820FFF718FDED
:1027700002E04320FFF714FD00BF00BF089818B91E
:10278000B8F1000F3FF43CAF099818B9B8F1000F49
:102790003FF432AF40460BB0BDE8F08F0040000878
:1027A0000C010020A8000020680000200FB4054B99
:1027B00010B503A9044A029800F018F810BC5DF89F
:1027C00014FB0000A52900084000002002E008C812
:1027D000121F08C1002AFAD170477047002001E09B
:1027E00001C1121F002AFBD1704700002DE9FF4FE5
:1027F0008BB09A460F460546002606E025280BD0EA
:1028000052460D9990476D1C761C28780028F5D10A
:102810000FB03046BDE8F08F0024A0460122604989
:1028200000E0044315F8013F203B02FA03F00842A0
:10283000F7D128782E2817D115F8010F44F0040499
:102840002A280ED06FF02F022878A0F13001092934
:102850000AD808EB880102EB410100EB01086D1C6E
:10286000F2E757F8048B6D1C287869283ED006DC07
:102870000028CDD063280BD0642804D136E073281B
:1028800010D075284BD052460D999047761C85E0A4
:1028900017F8040B8DF8000000208DF80100E946C0
:1028A000012003E057F8049B4FF0FF3061074FF021
:1028B000000401D40AE0641C44450DDA8442FADBCA
:1028C00019F804100029F6D106E0641C8442FCDBF0
:1028D00019F804100029F8D1264404E019F8010B76
:1028E00052460D999047641EF8D257E001CF4FF041
:1028F0000A0B002802DA40422D2102E0210504D50E
:102900002B218DF82410012103E0E10705D02021BF
:10291000F7E70DF1200908910CE00021F9E701CF5C
:102920004FF00A0BF9E75946FDF71EFC01F13002A2
:1029300009F8012D0028F6D1ADEB090000F1200BBC
:10294000600701D44FF00108D84502DDA8EB0B0069
:1029500000E000208046002406E009A85246005D01
:102960000D999047641C761C08988442F5DB04E0BE
:10297000302052460D999047761CB8F10001A8F11D
:102980000108F5DC05E019F8010B52460D99904756
:10299000761CBBF10001ABF1010BF4DC6D1C34E7DC
:1029A0000928010013B50C464FF6FF730122694652
:1029B0000248FFF7CDF900981CBD00006800002018
:1029C00008B500BF00BFFFF77DFCFEF79FF80020B1
:1029D000FDF77CFC0120FDF779FC0020FDF7C0FC31
:1029E0000120FDF7BDFCFDF71BFDFFF72BFA31A021
:1029F000FFF7DCFE39A0FFF7D9FE444800684068C5
:102A000057E06423012269464048FFF725F9044650
:102A10003F4800681E2805D33E48007810B90024BE
:102A200032200090002C3CD19DF80000312802D0CB
:102A3000322834D108E0FFF7D7FA1EA0FFF7B6FE20
:102A400026A0FFF7B3FE2BE033A0FFF7AFFE3A4816
:102A500000683A490840B0F1005F10D1364840683C
:102A600037490860084600683649086032490868F6
:102A700080F3088800BF3348006880470EE032A02A
:102A8000FFF794FE0BA0FFF791FE14A0FFF78EFE58
:102A900001240020009001201E49087000E000BFC2
:102AA00007E00020FDF76CFC19480068401C18493D
:102AB0000860A6E770726573732027312720746F52
:102AC00020646F776E6C6F61642070726F677261E3
:102AD0006D2E2E2E2E2E2E0D0A00000070726573A4
:102AE000732027322720746F2073746172742070F2
:102AF000726F6772616D20657865637574696F6E5A
:102B0000202E2E2E2E2E2E0D0A00000068000020F2
:102B10002C00002030000020537461727420707209
:102B20006F6772616D20657865637574696F6E2E6D
:102B30002E2E2E2E2E0D0A00004000080000FE2F23
:102B400038000020340000204572726F723A206E07
:102B50006F2070726F6772616D2E2E2E2E2E2E0DCD
:102B60000A0A00000000000001020304010203043D
:102B70000607080901000200000200049C2B00085F
:102B80000000002044000000CC270008E02B0008D3
:102B900044000020D4080000DC27000800000000EA
:102BA00000A24A040000000000000000010203042B
:102BB00006070809000801400008014000380140EC
:102BC0000008014000080140000000000000000073
:102BD00000000000000000000000000000000000F5
:04000005080000ED02
:00000001FF
