:020000040800F2
:10400000683C002001410008F95B0008835B000860
:10401000F15B000881520008236E000800000000D8
:104020000000000000000000000000008967000898
:10403000A552000800000000C3610008ED690008F7
:104040001B4100081B4100081B4100081B410008E0
:104050001B4100081B4100081B4100081B410008D0
:104060001B4100081B4100081B4100081B410008C0
:104070001B4100081B4100081B4100081B410008B0
:104080001B4100081B4100081B4100081B410008A0
:104090001B4100081B4100081B410008A1540008F7
:1040A0001B4100081B4100081B4100081B41000880
:1040B0001B4100081B4100081B4100081B41000870
:1040C0001B4100081B4100081B4100081B41000860
:1040D0001B4100080D6C00081B4100081B41000833
:1040E0001B4100081B4100081B410008DFF80CD0F1
:1040F00000F0B0FB004800472D800008683C00201D
:104100000648804706480047FEE7FEE7FEE7FEE771
:10411000FEE7FEE7FEE7FEE7FEE7FEE7F96A0008D6
:10412000ED400008A0F14101192900D82030704766
:1041300040EA01039B0703D009E008C9121F08C029
:10414000042AFAD203E011F8013B00F8013B521EA9
:10415000F9D27047D2B201E000F8012B491EFBD220
:1041600070470022F6E710B513460A460446194682
:10417000FFF7F0FF204610BD421C10F8011B00297C
:10418000FBD1801A704730B505460020034600E099
:104190005B1C934205D2EC5CC85C201A01D1002C58
:1041A000F6D130BD70B5064602F042FF0468054600
:1041B0000A220021304600F031FA2C6070BD2DE952
:1041C000FE4F804681EA0300C00F0C46009021F0AC
:1041D000004123F00045B8EB0200A94105D240465A
:1041E000214690461C460B46024623F000401043F1
:1041F00047D0270DC7F30A00C3F30A510290401AB3
:10420000019040286BDAC3F3130040F4801B009840
:10421000924620B10023D2EB030A63EB0B0B01980B
:104220005946C0F14002504600F079F906460D4665
:1042300050465946019A00F091F910EB080061418F
:10424000002487EA115284EAE7731A4340D0009AA7
:1042500062B3019A012A4FEA075215DC001B61EB99
:1042600002014FF0004202EA0752CDE90042001C71
:1042700041F5801132462B4600F017FA03B0BDE835
:10428000F08F40462146F9E7001B61EB0201001C5C
:1042900041F5801300185B412018A2F5001747EB89
:1042A000030140EAD570B6196D4111E06D084FEA7F
:1042B000360645EAC0754FEA0752001B61EB020162
:1042C000001C41F5801149084FEA300000195141A6
:1042D00032462B4603B0BDE8F04F00F0D7B9009846
:1042E000012240000023D0EB020263EBE073009850
:1042F00021464FEAE074B8EB000061EB0401E9E706
:1043000083F000435BE781F0004158E72DE9FE4F61
:1043100081EA030404F0004421F0004100944FF0CE
:10432000000B23F0004350EA01045ED052EA03047C
:104330005BD0C3F30A54C1F30A552C44A4F2F334FE
:104340000194A0FB0254C1F3130141F48011C3F3A3
:10435000130343F4801301FB024400FB034E840A61
:10436000970A44EA815447EA8357A4FB07680295F9
:104370008D0A05FB07854FEA932C04FB0C54270597
:10438000029D4FEA065847EA1637B5EB08056EEB73
:10439000070C870E920E47EA811742EA8312A7FBA9
:1043A0000201B6EB0B0164EB00042B0D43EA0C3366
:1043B0005E1844EB1C50DA465146E7FB0201C5F398
:1043C00013044FEA0B3343EA14534FEA0432019CBF
:1043D00043EA0603A4F10C040294009CCDE900B466
:1043E00000F063F903B0BDE8F08F00200146F9E763
:1043F00070B5C1F30A5201F000450024C1F3130166
:1044000040F2FF3341F480119A4201DA002070BD7E
:1044100040F233439A42A2F2334203DC524200F0AC
:104420008DF800E090402C43F1D0404270BD000078
:1044300030B5041E71F1000404DB4FF0004440422B
:1044400064EB0101141E73F1000405DB1C464FF000
:104450000043524263EB04038B4208BF824230BDEB
:1044600030B5041E71F1000404DB4FF000444042FB
:1044700064EB0101141E73F1000405DB1C464FF0D0
:104480000043524263EB0403994208BF904230BD9F
:1044900030B50B46014600202022012409E021FA14
:1044A00002F59D4205D303FA02F5491B04FA02F511
:1044B0002844151EA2F10102F1DC30BD2DE9F05FA8
:1044C0000546002092469B46884606468146402483
:1044D0001BE0284641464746224600F02FF8534647
:1044E0005A46C01A914110D311461846224600F090
:1044F00016F82D1A67EB01084F46224601200021CD
:1045000000F00DF817EB00094E41201EA4F1010444
:10451000DFDC484631462A464346BDE8F09F202A64
:1045200004DB203A00FA02F1002070479140C2F10A
:10453000200320FA03F3194390407047202A04DB3C
:10454000203A21FA02F00021704721FA02F3D0400C
:10455000C2F120029140084319467047202A06DB29
:10456000CB17203A41FA02F043EAE07306E041FA41
:1045700002F3D040C2F1200291400843194670472F
:104580000FB4002300B589B00CA900910B996FF00E
:104590000042CB601E4B06931E4B07930423CDE9CC
:1045A00001321D4A089202466B46002000F0F2F9E3
:1045B00009B05DF814FB70B586B006464FF0FF30C9
:1045C0000091CDE90101002015460C4604903246C9
:1045D000694604A8FFF7D4FF03460498211825B1C3
:1045E00008B10A4600E022462A6000280DD0002BC0
:1045F00002DD0098884208D0081B0094CDE9010430
:104600003246694604A8FFF7BBFF06B070BD000044
:10461000CD4B0008EB4B0008814800082DE9F0471E
:1046200091460F4680460446002614F8015B2DB1E2
:1046300000F022F90068405DC007F6D12B2D02D0B2
:104640002D2D18D0641E4A463946204600F0DEFA69
:1046500027B13968A14201D1C7F8008071054FF038
:1046600002040BD54042002803DD02F0E1FC0460A7
:10467000A007BDE8F08746F48066E4E70028F8DA92
:1046800002F0D6FC04606FF00040F2E710B5141E93
:1046900073F1000408DA401C41F1000192185B41FB
:1046A0001A4301D120F0010010BD2DE9F04D9246D2
:1046B0009B4611B1B1FA81F202E0B0FA80F22032E9
:1046C0009046FFF72CFF04460F4640EA0A0041EAF5
:1046D0000B0153465A46084313D0114653EA0100D2
:1046E00019D0C8F140025046FFF728FF05460E4694
:1046F000504659464246FFF712FF084305D00120B5
:1047000004E020463946BDE8F08D0020054346EA26
:10471000E0762C4337430A986305E40AA0EB0800CF
:104720000022FD0A44EA47540A3002D5002001461F
:10473000E9E7010510196941DDE9084500196941FA
:10474000BDE8F04DA2E72DE9F04D81EA030404F045
:10475000004B21F0004514464FF0000A23F00041C1
:1047600050EA050220D054EA01021DD0C5F30A57D1
:104770000246C5F31303C1F31300C1F30A5640F414
:10478000801543F48013A7EB0608101BD64608F2E9
:10479000FD3873EB050002D308F1010801E092181F
:1047A0005B41B8F1000F03DA00200146BDE8F08D4F
:1047B00000204FF48011064684460EE0171B73EB71
:1047C000050705D3121B63EB050306434CEA010CF6
:1047D00049084FEA300092185B4150EA0107EDD1D9
:1047E00052EA030012D082EA040083EA050108437A
:1047F00005D0101BAB4106D20122002306E00022A7
:104800004FF0004302E06FF0010253101AEB060074
:104810004CEB085110EB0A0041EB0B01BDE8F04DE9
:10482000FFF734BFC1F30A52C1F3130140F2FF3363
:1048300041F480119A4202DA00200146704740F2AA
:1048400033439A42A2F2334202DC5242FFF776BE71
:10485000FFF765BE064C074D06E0E06840F0010337
:1048600094E8070098471034AC42F6D3FFF742FCB7
:10487000E4A2000804A300080048704784A20008CE
:1048800010B50446FFF7F8FF0068005D00F0010076
:1048900010BD00002DE9FF4F087881B09946FF2830
:1048A00005D0491C2D2804D00024002308E0002353
:1048B0000BE00124F9E703EB830300EB4303491CFE
:1048C0000878FF28F7D104B15B42002000901478EB
:1048D00001462D2C01D02B2C04D1521C2D2C12D092
:1048E0000024009400251678FF2E0ED00A24A0FB89
:1048F00004C801FB0481002700FB0711521C16EBC2
:104900000C006941EFE70124EBE7994450EA01020A
:104910000ED00024AA4D2646DFF8A88200F0D3F975
:1049200082468B46B9F1000009DAC9F100071BE0A5
:1049300001980021C0E9001105B0BDE8F08F0746DD
:1049400012E0F80707D022462B4630464146FFF7D3
:10495000DDFC0646884622462B4610461946FFF7E0
:10496000D5FC04460D467F10002FEAD1B9F1000FA7
:10497000324643465046594602DAFFF7E4FE01E06C
:10498000FFF7C4FC009A0AB181F00041019AC2E924
:104990000001D1E72DE9FF4F1F468DB0D7E9014651
:1049A0004FF0FF382E2045464FF000090B90B969B3
:1049B0006D1C0E988847396A824688470028F6D1D0
:1049C000BAF1FF3F0AD024F4D064002E11DDBAF111
:1049D0002B0F08D0BAF12D0F0BD102E0404611B0D9
:1049E000ABE744F48064B9696D1C0E988847824631
:1049F000761E6946600501D52D2000E02B208DF83C
:104A0000000001F1010B0DF1200809E0B9696D1CEE
:104A10000E98884782460F9844F40074761E05600D
:104A2000002E02DDBAF1300FF0D00B998A453ED14D
:104A300044F0800406E00F99681CA9F1010944F4D0
:104A400000740860B9696D1C761E0E98884782460E
:104A50003028F0D02BE00B998A4505D1200603D4ED
:104A600044F08004761E18E0504602F0A9FB08B31B
:104A70000DF11301761E44F400748B4508D2AAF19F
:104A800030000BF8010B200607D5A9F1010003E067
:104A9000200602D409F101008146A00502D50F9934
:104AA000681C0860B9696D1C0E9888478246002E04
:104AB000D1DC53E0002E51DDBAF1650F02D0BAF11E
:104AC000450F4BD1A00549D5B9696D1C24F440743C
:104AD000761E0E9888478246002E0CDD2B2804D0C7
:104AE000BAF12D0F07D144F48074B9696D1C0E988A
:104AF00088478246761EE00501D52D2100E02B2156
:104B000008F8011BCDF82C8021E00DF12901761E5B
:104B100044F4007488450CD2AAF1300010F0FF0074
:104B200088F8000002D10B99884509D908F10108DD
:104B300006E0E00501D5244801E042F20F7081460D
:104B4000B9696D1C0E98884782460F980560002E43
:104B500004DD504602F034FB0028D6D1F9690E98E6
:104B60008847FF208BF8000088F80000002006909E
:104B700007904B466A4608A906A8FFF78BFEA005DA
:104B800002D46FF001002AE714F0240F0AD0E007E6
:104B900014D1DDE906123868031D3B600068C0E9E6
:104BA00000120BE0DDE9060100F099F80146E0078C
:104BB00004D13868021D3A600068016028460EE79B
:104BC000000024400000F03FF1D8FFFF426842B1EE
:104BD000016811F8013B23B1521EC0E900121846CA
:104BE00070470121C160881E704742685AB1C3688E
:104BF000016843B983688B4205D0491E521CC0E945
:104C00000012002070474FF0FF3070472DE9F05F31
:104C100082460078002715468B460AF10104B94602
:104C2000302801D09DB113E014F8010B012778283A
:104C300003D0582801D045B10AE00DB1102D07D19D
:104C40000027102514F8010B02E0082500E00A25D2
:104C50000026B0460EE005FB080005FB06F1012723
:104C600001EB10461FFA80F8B6F5803F00D3B94635
:104C700014F8010B294600F018F80028EBDABBF114
:104C8000000F05D00FB1641E00E05446CBF8004081
:104C9000B9F1000F06D002F0CBF902210160C81E65
:104CA000BDE8F09F48EA0640FAE73A2800D23038DB
:104CB00020F02002412A01D3A2F13700884201D31B
:104CC0004FF0FF3070470EB540F23342029200229F
:104CD000CDE900221346FFF7E8FC03B000BD01F068
:104CE000004330B421F0004150EA010206D00A0D21
:104CF000A2F56072C1F31301002A02DC30BC00206F
:104D00007047440F44EAC104C100E01830BC00EB16
:104D1000C250AFF300800029A8BF7047401C490073
:104D200008BF20F00100704710B4B0FA80FC00FA10
:104D30000CF050EA010404BF10BC704749B1CCF13B
:104D4000200421FA04F411FA0CF118BF01212143C7
:104D50000843A3EB0C01CB1D4FEA00614FEA102082
:104D600042BF002010BC704700EBC3501044002924
:104D7000A4BF10BC7047401C490008BF20F00100D0
:104D800010BC704770B58C1810F8015B15F0070364
:104D900001D110F8013B2A1106D110F8012B03E0D4
:104DA00010F8016B01F8016B5B1EF9D12B0705D4DC
:104DB0000023521E0DD401F8013BFAE710F8013B25
:104DC000CB1A921C03E013F8015B01F8015B521E41
:104DD000F9D5A142D8D3002070BD00002DE9F041E3
:104DE0000025002603F05AFF054603F009F80646A1
:104DF0000EB1BDE8F081012D6AD1002400F052FF10
:104E000028215A48FFF7ADF95849262001F0DDF86E
:104E10000446E4B956480078012803D1554804F007
:104E2000F1FBE6E752480078022802D10020504901
:104E300008704E48007800F04000402803D1082058
:104E40004D49087004E004204B49087000E0D0E7A9
:104E50004A49932000F02CFF044604B1C9E74848B2
:104E600000210160416001810146444801F0E3F8FE
:104E700004465CBB4048007808281ED140480078B2
:104E800000F00400042818D13C49091D952000F0C9
:104E90000FFF044604B1ACE739493848001D01F062
:104EA0000EF9044644B901203649087036490870A5
:104EB000032003F0F9FE0AE09BE701203149087066
:104EC00031490870032003F0EFFE00E091E700BFD6
:104ED000032D18D12C48007801280DD129480078DD
:104EE000022809D00121294800F03AFE00F0FEF91D
:104EF00001F049F800F0D0FE2248007800B100BF70
:104F0000042003F0D1FE052D2DD1214C214F01218C
:104F10001E4800F023FE012080F3108800BF04F03B
:104F200023F9012003F0C0FE18212046FFF719F9EC
:104F300018213846FFF715F9174890F8BD040128E5
:104F40000DD107F10D0000210160416001810020B9
:104F5000114981F8BD0481F8BC0403F0A5FE0120CD
:104F60000349087000BF00BF43E70000062A002085
:104F70008B0100206C02002088010020900E002090
:104F80002E2A00208A010020890100200010014003
:104F9000382B0020502B00209A0F002030B585B010
:104FA0008148007801285DD10024804B1B78082BB4
:104FB00001D17F4B01E07E4B1B1F19467D4B7E4D7F
:104FC0002D7853F825007C4D2D7853F82530DA697B
:104FD000904744B2002080F3108800BF77A002F011
:104FE00093FC77A002F090FC14216846FFF7B9F813
:104FF0006E480078082807D16D48001F77A14268E5
:10500000684601F0EFFF06E06948001F73A10268DF
:10501000684601F0E7FF694672A002F075FC65483A
:10502000654A127850F82200016874A002F06CFC06
:10503000214678A002F068FC7BA002F065FC4CB928
:10504000012002F081FD022004F08EF8774804F080
:10505000D9FA06E04FF0FF3075490880032004F0CC
:1050600083F800BF50480078022839D1002401207D
:1050700002F090FC012832D0FF216E48FFF771F852
:105080006C49012004F080F900280FDD6948007A9E
:105090006849C979674A9279CDE90021029065484B
:1050A00043790279017864A001F08CFF4149424BB9
:1050B0001B7851F82300404B1B7851F823100A6AE3
:1050C0005C49904744B234B9032004F04DF8002005
:1050D0005749088003E04FF0FF305549088000BF72
:1050E00031480078032822D15148B0F9000010F16E
:1050F000020F11D0B0F1FF3F07D0A0B9032002F09A
:1051000067FF042004F030F80EE0022002F060FF98
:10511000042004F029F807E0022002F075FF0420C3
:1051200004F022F800E000BF00BF05B030BD1E480B
:10513000007804282FD14F480078401C4D49087052
:10514000084600780A2803DC052004F00DF821E069
:105150003748B0F90000401C70B11649164A127861
:1051600051F82200144A127851F822104B6A304943
:10517000B1F900202F499847002003F0F5FF0020E7
:105180002B4908803B490870032002F005FF0220EC
:1051900002F002FFC9E704480078062802D1032084
:1051A00003F0E2FF00BFC0E7920100208801002069
:1051B000940E0020300100208F0100207B0D0A009A
:1051C00020202266756E223A2022636172645F732A
:1051D000657474696E67222C0D0A00002530313029
:1051E00075000000202022636172645F6964223AC6
:1051F00020222573222C0D0A00000000202022709E
:10520000726F5F6E616D65223A20222573222C0D2C
:105210000A000000202022726573756C74223A2007
:10522000222564220D0A00007D0D0A0024020020C0
:1052300094010020682B00207B2266756E223A22A2
:105240006465627567222C2272737369223A222D7B
:105250002564222C22756964223A22253032782571
:105260003032782530327825303278253032782245
:105270007D0D0A009301002010B503F0EDFD10BD77
:1052800001E0FEF73DFFFCE770B505460C46002641
:10529000284601F049F9064626EA0401284601F0AD
:1052A00017FE70BD7047002108E0002202E000BF39
:1052B000531C9AB2462AFADB4B1C99B28142F4DBAA
:1052C0007047002002E000BF411C88B21128FADBC1
:1052D0007047000001B504490098086000BF02480B
:1052E00000680028FBD108BD3400002038B500203C
:1052F00000900024F6210C48FEF733FF69460A4867
:1053000000F013FE04466CB907480078C22809D1A2
:1053100005484078E02805D103488078B42801D1B9
:10532000002038BD1120FCE72E2A002070B504466D
:105330000D4606220623502095FBF0F04FF6FF762F
:1053400006EA4001154E06EB81200288481C06EB58
:1053500080200388BCB1012C1ED143B94EF6EE600B
:10536000824201D1084670BD481C80B2FBE742B9B9
:105370004EF6EE60834202D1481C80B2F3E7084645
:10538000F1E7AB20EFE70AB90846ECE713B9481C90
:1053900080B2E8E7AB20E6E70846E4E700800108D2
:1053A00070B505460424284600F000F90446042C94
:1053B00001D0204670BD0021284600F037F9044690
:1053C000042C01D02046F5E705F5806000F0EEF8EA
:1053D00004462046EEE700002DE9F04706460F465A
:1053E0000024A0464FF001090025A24631460020C6
:1053F000FFF79CFF0446AB2C01D1BDE8F0870D48B8
:1054000000EB842A601C0B49891E01EB80250AE011
:10541000B5F80080B04505D135F8020C38804FF062
:10542000000904E02D1F0AF102008542F0D800BFF8
:105430004846E2E7008001082DE9F0470646884625
:10544000042700250024A14631460120FFF76EFF06
:105450000546AB2D01D1BDE8F087104800EB85244F
:10546000681C0E49891E01EB802913E02068401C4E
:1054700078B94146204600F0D9F80746042F01D0FC
:105480003846E8E73146A01C00F0D0F80746384619
:10549000E1E7241D4C45E9D38020DCE700800108CA
:1054A00010B5202000F024F8A0B10C4A911E0C4841
:1054B00003F0ACFF02F0A4FC02280BD1012002F0A3
:1054C00069FA032806D005480A38027A0349012000
:1054D00004F026F8202000F005F810BD7B15002010
:1054E0000030014001490860704700001404014089
:1054F000014600200022074B1B6803EA0102054B0E
:1055000014331B680B4013B10AB1012000E00020E6
:105510007047000000040140002123498279002ADD
:105520003AD00A46126803689A430B461A600A1D6D
:10553000126803689A430B1D1A60027911440A68C5
:1055400003681A430A60184A0832126803689A43CB
:10555000154B08331A601A1D126803689A43124BE0
:105560000C331A604279102A0ED11A1F1268036890
:105570001A430D4B08331A601A1D126803681A4348
:10558000094B0C331A600DE00749427911440A684F
:1055900003681A430A6005E0027911440A68036847
:1055A0009A430A60704700000004014030B5044689
:1055B00004254FF4302000F065F80546042D17D17E
:1055C0000C48006940F002000A490861084644613D
:1055D000006940F0400008614FF4302000F052F8BC
:1055E00005460448006941F6FD710840014908611B
:1055F000284630BD0020024004200B49C96801F054
:10560000010109B101200EE00749C96801F0040158
:1056100009B1022007E00449C96801F0100109B18D
:10562000032000E0042070470020024070B50446CB
:105630000D460426F00200F025F80646042E11D18E
:105640000948006940F00100074908612580F0021F
:1056500000F018F806460448006941F6FE7108405B
:1056600001490861304670BD0020024002480349EC
:1056700048600348486070472301674500200240A6
:10568000AB89EFCD00B502460423FFF7B5FF034613
:1056900003E0FFF7B1FF0346521E012B01D1002AA0
:1056A000F7D102B90523184600BD000070B50646C3
:1056B000FFF7DCFF9EB900240EE0621C164B03EBE3
:1056C000822103EB842000F029F80546042D01D047
:1056D000284670BDA01C44B20E2CEEDB19E000245D
:1056E00015E00D4901EB8420FFF760FF0546042D0E
:1056F00001D02846EDE7084901EB8420FFF750FE72
:105700000546042D01D02846E3E7A01C44B20E2C28
:10571000E7DB2846DDE70000008001082DE9F84FAF
:105720000646884606200090062700254FF000090F
:105730004FF0000A4FF0FF3B30880090B8F800703F
:10574000009800286DD0A0F56E40EE3860B3A0F54B
:1057500088501138002879D147B93046FFF726FF25
:105760000446042C1FD02046BDE8F88F4EF6EE60AC
:10577000874210D13046FFF719FF0446042C01D0B0
:105780002046F1E700214046FFF750FF0446042C75
:1057900009D02046E8E73046FFF702FE0446042C15
:1057A00001D02046E0E7CCE0D7BB00252DE0F08813
:1057B0006549711A890A01EB810105EB01118842E3
:1057C00001D10FFA85FB5D451DD04FF4C031711A30
:1057D000890A01EB810105EB011188B25B49FFF7F2
:1057E000FBFD8246BAF1010F0DD04FF4C031711AA2
:1057F000890A01EB810105EB011188B2534909883F
:10580000FFF71AFE8146681C85B2502DCFDB0021C0
:105810003046FFF70BFF0446042C03D02046A3E7D5
:1058200008E026E04046FFF7C1FE0446042C1FD0E6
:10583000204699E74FF6FF70874211D14046FFF7A7
:10584000B5FE0446042C02D020468DE770E000210E
:105850003046FFF7EBFE0446042C09D0204683E7D0
:105860003046FFF79DFD0446042C01D020467BE71F
:1058700067E03FB93046FFF793FD0446042C56D04D
:10588000204671E74FF6FF70874207D14046FFF789
:105890008DFE0446042C4AD0204665E7002533E0FF
:1058A000B8F806002849711A890A01EB810105EB55
:1058B0000111884201D10FFA85FB5D4522D04FF4DA
:1058C000C031711A890A01EB810105EB011188B21F
:1058D0001E49FFF781FD8246BAF1010F12D04FF445
:1058E000C031711A890A01EB810105EB011188B2FF
:1058F00016490988FFF7A0FD8146B9F1040F01D0D0
:10590000484631E7681C85B2502DC9DB002140466E
:10591000FFF78CFE0446042C01D0204624E73046D5
:10592000FFF744FE0446042C01D020461CE708E0A3
:105930003046FFF735FD0446042C01D0204613E71E
:1059400000BF00BF04200FE70080010876000020A0
:1059500008B50120ADF8000003208DF802001020EA
:105960008DF803006946024800F024F808BD0000E5
:105970000010014030B500228B071C0F0F2303FAE3
:1059800004F20B4B8C1053F824309343084C8D10C9
:1059900044F8253023468C1053F824308C07240F0C
:1059A00000FA04F42343024C8D1044F8253030BD36
:1059B000080001402DE9F0410246002500260020A4
:1059C00000230024002791F803C00CF00F0591F884
:1059D00003C00CF0100CBCF1000F03D091F802C012
:1059E0004CEA050591F800C0BCF1000F31D01468F5
:1059F00000202BE04FF0010C0CFA00F3B1F800C0CE
:105A00000CEA03069E4220D183004FF00F0C0CFAE3
:105A100003F7BC4305FA03FC4CEA040491F803C005
:105A2000BCF1280F06D14FF0010C0CFA00FCC2F8B3
:105A300014C00AE091F803C0BCF1480F05D14FF043
:105A4000010C0CFA00FCC2F810C0401C0828D1D38D
:105A50001460B1F800C0BCF1FF0F34DD54680020C1
:105A60002EE000F1080C4FF0010808FA0CF3B1F831
:105A700000C00CEA03069E4221D183004FF00F0CB8
:105A80000CFA03F7BC4305FA03FC4CEA040491F852
:105A900003C0BCF1280F05D100F1080C08FA0CF87E
:105AA000C2F8148091F803C0BCF1480F07D100F18F
:105AB000080C4FF0010808FA0CF8C2F81080401CDE
:105AC0000828CED35460BDE8F0810000F0B50A4646
:105AD000002300240021002500F00046B6F1004F0D
:105AE00002D11D4EF16901E01B4E7168C0F3034500
:105AF00083B200F44016B6F5401F08D121F0706162
:105B0000154E766826F07066134F7E6012E000F442
:105B10008016B6F5801F06D1032606FA05F4A143C8
:105B200041F0706106E0460D360103FA06F6B14316
:105B300041F0706122B1460D360103FA06F6314399
:105B400000F00046B6F1004F02D1034EF16101E0D2
:105B5000014E7160F0BD00000000014041617047DE
:105B6000016170470AB1016100E04161704710B501
:105B7000032002F0F1F9022002F0EEF9FFF7E8FE4F
:105B800010BD01E0FEF7BCFAFCE710B545F2555038
:105B900000F028F8062000F019F840F2662000F026
:105BA0001BF800F00BF800F001F810BD4CF6CC40EB
:105BB0000149086070470000003000404AF6AA2002
:105BC000014908607047000000300040014948600A
:105BD00070470000003000400149886070470000B5
:105BE000003000400149086070470000003000406C
:105BF00001E0FEF785FAFCE701E0FEF781FAFCE739
:105C000070B5002100230F22C47804B3154C24681A
:105C100004F4E064C4F5E064210AC1F10403CA405D
:105C2000447804FA03F184781440214309010E4CAE
:105C30000678A155047804F01F050124AC400578CE
:105C40006D11AD0005F1E025C5F8004109E00478CB
:105C500004F01F050124AC40044D0678761145F888
:105C6000264070BD0CED00E000E400E080E100E0C3
:105C700002490143024A1160704700000000FA0522
:105C80000CED00E0024A0A400243024B1A607047E2
:105C900080FFFF1F08ED00E010B503211120FFF782
:105CA000F3FA10BD10B50321112000F06EFD10BDF8
:105CB0002DE9FC4705460E460027B846E9466A200E
:105CC00000F041FA28211A2001F002F908210920E8
:105CD000FFF7DAFA0321222001F0FAF81E208DF8EE
:105CE000000002208DF80100932D03D193208DF840
:105CF000020004E0952D02D195208DF802002021AC
:105D00008DF80310484600F027F88046B8F1000FE0
:105D10001BD1002405E00DF10200005D4740601C2E
:105D2000C4B2042CF7DB0DF10200005DB84202D0D2
:105D30004FF0080809E0002405E00DF10200005DC5
:105D40003055601CC4B2042CF7DB20211A20FFF769
:105D50009BFA4046BDE8FC872DE9F84F8046444653
:105D60004FF0000B002700200090207812282FD041
:105D70000DDC072826D005DCB0B1012818D0032897
:105D800042D119E00B281ED00C283DD11CE0192867
:105D90002CD004DC14281FD0162835D120E01A2876
:105DA00028D01E2830D129E00027002000902EE0C6
:105DB0001127102000902AE00727042000904FF0C0
:105DC000010B24E000BF00BF0527042000901EE067
:105DD0001127102000901AE004270420009016E0FC
:105DE0000627042000904FF0010B10E00527042047
:105DF00000900CE005270420009008E03D270420D7
:105E000000904FF0010B02E01720207000BF00BF90
:105E10002078172873D00021084601F059F87F2117
:105E2000062001F055F87F21072001F051F80021EC
:105E3000012001F04DF80121092000F0A6FC47F0F7
:105E40008001062001F044F8002605E0A01C815DD9
:105E5000022001F03DF8761C6078B042F6D8217837
:105E6000012001F035F84FF4005600BF072000F084
:105E70005BFB0546761E46B105EA070000F02000F0
:105E800018B9009828400028F0D04FF07D0AAEB332
:105E900005EA070000F0200080BB0A2000F044FB68
:105EA00000F0170048BB4FF0000ABBF1000F31D0E3
:105EB000042000F039FB0546052000F035FB00F01A
:105EC0000709B9F1000F04D0681E09EBC00060702B
:105ED00002E0E806000E607005B90125002605E025
:105EE000022000F021FBA11C8855761CAE42F7D39E
:105EF000F82221464046FEF71BF90BE000E011E0D6
:105F000005EA070000F0200010B14FF0010A01E09F
:105F10004FF07D0A7F21062000F0DAFF7F21072065
:105F200000F0D6FF5046BDE8F88FF0B585B00646C4
:105F30000F466D466A2000F006F90321222000F08A
:105F4000C7FF08210920FFF79FF91E208DF80000E8
:105F500003208DF80100C2208DF80200E0218DF8A9
:105F60000310B4218DF804102846FFF7F5FE04460F
:105F70003CB90F22A91C3046FEF7DAF8002005B024
:105F8000F0BD2046FBE738B500246D466A2000F0DE
:105F9000DAF81E208DF8000002208DF80100502054
:105FA0008DF8020000218DF803102846FFF7D4FE7B
:105FB000044624B1012C01D01B2C00D10024002167
:105FC000012000F085FF204638BDF8B505460C4697
:105FD0006F466A2000F0B7F80321222000F078FF16
:105FE00008210920FFF750F907210F2000F070FF6A
:105FF0001E208DF8000001208DF801008DF8025060
:10600000222000F091FA06460F2000F08DFA064695
:106010003846FFF7A1FE064656B99DF80100102844
:1060200006D19DF8020020709DF80300607000E02A
:106030000B263046F8BD2DE9FE4305460F464FF0CE
:106040000008E9466A2000F07EF80F21222000F0C7
:106050003FFF08210920FFF717F91E208DF80000E7
:1060600007208DF8010093208DF8020070218DF833
:106070000310002409E0285D80EA08082A5D0DF17C
:106080000200A11C4254601CC4B2042CF3DB8DF846
:1060900008804846FFF760FE06466EB9D9F8020050
:1060A0003860D9F806007860B9F80A0038819DF8A0
:1060B0000100082800D00B263046BDE8FE832DE9FC
:1060C000FE4305460F464FF00008E9466A2000F0FF
:1060D0003AF80F21222000F0FBFE08210920FFF7EB
:1060E000D3F81E208DF8000007208DF801009520C0
:1060F0008DF8020070218DF80310002409E0285D5E
:1061000080EA08082A5D0DF10200A11C4254601CBF
:10611000C4B2042CF3DB8DF808804846FFF71CFE60
:1061200006466EB9D9F802003860B9F80600B880A2
:1061300099F80800B8719DF80100082800D00B26D6
:106140003046BDE8FE8310B50446012C06D0022C73
:106150000DD0032C14D0042C24D11AE007212A20BE
:1061600000F0B6FE6A212C2000F0B2FE23E00721E9
:106170002A2000F0ADFEA0212C2000F0A9FE1AE09C
:1061800009212A2000F0A4FEA0212C2000F0A0FE6E
:1061900011E009212A2000F09BFEFF212C2000F0B5
:1061A00097FE08E007212A2000F092FE21462C20CD
:1061B00000F08EFE00BF00BF06212B2000F088FEFD
:1061C00010BD704710B50024012080F3108800BF77
:1061D00000F09EFBFFF7CBFC00F026FE01F0A2FDD5
:1061E00002F08EF90020FFF761FA01F00FFE03F0D4
:1061F00061FA03F097FA01F089FC03F073F901F0FA
:10620000D9FF04460CB918A000E018A0014619A057
:1062100000F0D8FE01211F48FFF7A2FC01F0AAFC04
:1062200004460CB910A000E010A001461AA000F02E
:10623000C9FEFFF7AAFC002080F3108800BF0320EE
:1062400001F0C6FE022001F0C3FEC820FFF742F8AD
:1062500001211048FFF782FC022001F09DFE03207F
:1062600001F09AFE10BD00004F4B00004641494C22
:10627000000000005B20494E4954205D204D46310E
:1062800037303220494E49543A20257320210D0AD7
:1062900000000000001001405B20494E4954205D81
:1062A00020535049205345542043505520524620F6
:1062B0003A20257320210D0A0000000029B1064A6A
:1062C00052690243044B5A6104E0034A5269824313
:1062D000014B5A61704700000010024029B1064A84
:1062E000D2690243044BDA6104E0034AD269824373
:1062F000014BDA61704700000010024029B1064AE4
:1063000092690243044B9A6104E0034A9269824312
:10631000014B9A6170470000001002400149C864B7
:1063200070470000000042420F48006840F0010042
:106330000D490860084640680C4908400A49486011
:10634000084600680A49084007490860084600688E
:1063500020F4802008600846406820F4FE00486071
:106360004FF41F0088607047001002400000FFF8E3
:10637000FFFFF6FE30B500210022002400232D4D42
:106380006D6805F00C0121B1042905D0082923D13D
:1063900005E0294D056022E0274D05601FE0254DF1
:1063A0006D6805F47012234D6D6805F48034022584
:1063B00005EB92421CB9214D554305600BE01D4D84
:1063C0006D6805F400351DB11C4D5543056002E0B4
:1063D000194D5543056002E0174D056000BF00BF31
:1063E000144D6D6805F0F0010909154D6B5C0568E9
:1063F000DD4045600F4D6D6805F4E061090A104D00
:106400006B5C4568DD4085600A4D6D6805F4605140
:10641000C90A0B4D6B5C4568DD40C560054D6D6874
:1064200005F44041890B074D6B5CC568B5FBF3F57E
:10643000056130BD0010024000127A0000093D00E5
:10644000140000202400002010B501460022002383
:1064500000204A11012A02D1094C236806E0022AD1
:1064600002D1074C236A01E0054C636A01F01F0268
:10647000012494401C400CB1012000E0002010BD1C
:10648000001002400248406800F00C007047000015
:106490000010024001460020034A506820F0F0003E
:1064A0000843506070470000001002400149086036
:1064B000704700000000424201460020034A506835
:1064C00020F4E06008435060704700000010024074
:1064D00001460020034A506820F4605040EAC100A1
:1064E0005060704700100240014908667047000084
:1064F0000000424202460020044B586820F47C1001
:1065000042EA01031843014B5860704700100240F3
:1065100001460020034A506820F003000843506001
:10652000704700000010024070B5044601221102BD
:106530005048FFF717FB012251024E48FFF712FBAC
:106540000122D1034C48FFF70DFB012211024A48FA
:10655000FFF708FB4948006820F4F85047490860F5
:106560000846006804F01F0140EA01204349086022
:106570004048C06820F4E0503E49C8600846C06802
:1065800004F0E00140EA41103A49C860012289154F
:106590003848FFF7E7FA0220FEF785FEFEF791FE86
:1065A000FEF78FFE00224FF480713248FFF7DAFACF
:1065B0003248083800686FF3130030490839086022
:1065C000084600682E4908432C49083908602948C4
:1065D00040682C49084027494860084640682849D7
:1065E0004439084323494860002249152148FFF7F0
:1065F000B9FA00224FF400411F48FFF7B3FAFEF743
:1066000060FE1E48001F0068C0F304201949896815
:10661000C1F3822140EA4115FEF753FE0122D10366
:106620001548FFF79FFA012251021248FFF79AFA24
:106630000120FEF738FE1148083800686FF3130098
:106640000E4908390860084600680F4908430B499D
:1066500008390860074840680A4908400549486009
:1066600008464068084933390843024948602846CB
:1066700070BD000000100140000801400C0C0140FA
:1066800044440400FF00F0FF3333030021B10288CB
:1066900042F04002028004E002884FF6BF731A40C5
:1066A000028070470246002013890B400BB1012085
:1066B00000E000207047014688897047818170475B
:1066C00010B50022028802F441520B884C88234303
:1066D0008C882343CC8823430C8923434C89234350
:1066E0008C892343CC8923431A430280838B4FF246
:1066F000FF74234083830B8A038210BD10B50446C8
:1067000000BF02210A48FFF7CDFF0028F9D021463B
:106710000748FFF7D3FF00BF01210548FFF7C2FF7D
:106720000028F9D00248FFF7C6FFC0B210BD000034
:106730000038004070B5044608200749086020462C
:10674000FFF7DCFF0020FFF7D9FF054608200249CC
:10675000091F0860284670BD140C014070B505463D
:106760000C460820074908602846FFF7C7FF064681
:106770002046FFF7C3FF08200249091F0860304682
:1067800070BD0000140C0140704770B505460C4602
:1067900000262846FFF7C8FE064646EA04012846BA
:1067A00000F096FB70BD10B500F002F810BD0000BF
:1067B0001CB50020019000905248006840F48030E1
:1067C0005049086000BF4F48006800F40030009056
:1067D0000198401C0190009818B90198B0F5A06F7D
:1067E000F1D14848006800F4003010B10120009059
:1067F00001E0002000900098012844D14248006840
:1068000040F01000404908600846006820F003008E
:1068100008600846006840F0020008603948406897
:10682000384948600846406848600846406840F477
:10683000806048600846406820F47C104860084644
:10684000406840F4D81048600846006840F0807006
:10685000086000BF2B48006800F000700028F9D0E5
:106860002848406820F003002649486008464068F0
:1068700040F00200486000BF2248406800F00C0071
:106880000828F9D13DE0012020490870FFF74CFDB0
:106890000120FFF70BFE00BF2120FFF7D5FD0028E8
:1068A000FAD01948006840F01000174908600846FF
:1068B000006820F0030008600846006840F002000D
:1068C00008600020FFF7E6FD0020FFF701FE4FF40F
:1068D0008060FFF7F1FD4FF460110020FFF70AFE22
:1068E0000120FFF701FE00BF3920FFF7ADFD0028B2
:1068F000FAD00220FFF70CFE00BFFFF7C3FD082807
:10690000FBD11CBD0010024000200240740000209A
:1069100070B500F0F1F800F09BF8314800684FF4D2
:106920007A72B0FBF2F1481EB0F1807F01D30120F2
:106930001BE0481E4FF0E022506150170F22002844
:1069400007DA13071D0E274B00F00F04241F1D55F7
:1069500003E013071C0E244B1C5400BF00204FF013
:10696000E022906107201061002008B100BFFEE71F
:1069700001210846FFF7C2FC01210420FFF7BEFCFD
:1069800001210820FFF7BAFC01211020FFF7B6FC17
:1069900001212020FFF7B2FC01218803FFF7AEFCA4
:1069A00001214804FFF79AFC01210803FFF7A6FC28
:1069B00001218803FFF792FC01210846FFF78EFCB6
:1069C00001210220FFF78AFC01210420FFF786FC49
:1069D00001210846FFF772FC0120FFF79FFC70BD04
:1069E0000000002018ED00E000E400E010B500F029
:1069F000B5F800F0F9F810480078D8B10F480068F1
:106A0000401C0E49086008460068142812D90C4939
:106A1000097840F2654251430A4A02EB810041F293
:106A20009411FDF79EFB0020074908700349086098
:106A30000649088010BD0000780100207401002084
:106A40007E010020611800207A0100207C010020D6
:106A500010B5002100200022214B5B6803F00C01DF
:106A600021B1042906D0082928D107E01D4B1E4C6E
:106A7000236027E01D4B1C4C236023E0184B5B6810
:106A800003F47010164B5B6803F48032022303EBAF
:106A9000904022B9164B4343134C23600DE0104B3A
:106AA0005B6803F4003323B10E4B43430E4C236069
:106AB00003E00E4B43430C4C236003E0094B0A4CAC
:106AC000236000BF00BF064B5B68C3F30313094C90
:106AD000E15C054B1B68CB40034C236010BD0000FC
:106AE0000010024000127A00000000200024F40090
:106AF00000093D000400002010B51448006840F073
:106B000001001249086008464068114908400F49D1
:106B10004860084600680F4908400C49086008466C
:106B2000006820F4802008600846406820F4FE00D9
:106B300048604FF41F008860FFF735FE4FF000609B
:106B4000054908604113FFF79DF810BD0010024091
:106B50000000FFF8FFFFF6FE08ED00E010B500248E
:106B600039E0204850F8240098B31E4850F824001B
:106B7000007C1C4951F8241009680978884228D102
:106B8000184A52F82400116E8847164A52F8240019
:106B9000D16D8847134951F82410C968884218D12B
:106BA000104B53F82430597C0E4B53F824001A6DC7
:106BB00090470C4951F824008A6D002190470948FC
:106BC00050F82400406920B1064951F82410486962
:106BD0008047601CC4B2034890F84C00A042C0DC5F
:106BE00010BD0000A80100200648006820B105483B
:106BF0000068401E0349086003480068401C0249C1
:106C000008607047340000203800002010B50024D0
:106C10002821134800F041F840B1012240F22551EB
:106C20000F4800F064F80E4800F0F2F840F22551E9
:106C30000B4800F032F848B1094800F0E9F8C4B256
:106C4000204602F0C7FD00200649086040F2277187
:106C5000034800F022F808B102F094FE10BD0000D5
:106C6000003801407401002021B1828942F40052B1
:106C7000828104E082894DF6FF731A408281704759
:106C800002460020B1F5007F00D100BF13880B4001
:106C90000BB1012000E00020704770B502460024CF
:106CA00000230025002040F66A16B14200D100BF43
:106CB000C1F3421501F01F03012606FA03F3012D6B
:106CC00002D19689334006E0022D02D1168A334064
:106CD00001E0968A33400C12012606FA04F4168865
:106CE000344013B10CB1012000E0002070BDF0B5BC
:106CF0000346002400260025002040F66A17B9420A
:106D000000D100BF1846C1F3421401F01F0601274D
:106D100007FA06F5012C01D10C3004E0022C01D158
:106D2000103000E014301AB107682F43076002E00A
:106D30000768AF430760F0BD2DE9F04786B0054610
:106D40000E460024A24600BFA1460027B08900B12C
:106D500000BF2F462C8A4CF6FF700440F088044395
:106D60002C82AC894EF6F3100440B0883189084378
:106D7000718908430443AC81AC8A4FF6FF4004405C
:106D8000B0890443AC8201A8FFF7F4FA1F48874298
:106D900002D1DDF810A001E0DDF80CA0A88900F414
:106DA000004040B10AEBCA0000EB0A10316849000C
:106DB000B0FBF1F807E00AEBCA0000EB0A103168FB
:106DC0008900B0FBF1F86420B8FBF0F00401200961
:106DD000642101FB1089A88900F4004040B13220F1
:106DE00000EBC900B0FBF1F000F00700044308E03D
:106DF000322000EB09106421B0FBF1F000F00F002D
:106E000004432C8106B0BDE8F08700000038014043
:106E100001468888C0F308007047C1F308028280E9
:106E2000704700BFFEE7000000B587B0012188036E
:106E3000FFF764FA4FF40070ADF8180003208DF8E6
:106E40001A0018208DF81B0006A91E48FEF7B2FD97
:106E50004FF48060ADF8180004208DF81B0006A9DF
:106E60001848FEF7A7FD184802900020ADF80C0066
:106E7000ADF80E00ADF81000ADF814000C20ADF820
:106E8000120002A91148FFF757FF4FF4A060FEF768
:106E9000EFFE25208DF8040001208DF805008DF807
:106EA00006008DF8070001A8FEF7AAFE012240F2B5
:106EB00025510648FFF71BFF01210448FFF7D4FEC8
:106EC00007B000BD000801400094110000380140E7
:106ED00070B505460C46012211023048FEF742FE0D
:106EE0002F48006820F4F8502D49086008460068D3
:106EF00005F01F0140EA0120294908602748C068C1
:106F000020F4E0502549C8600846C06805F0E0015B
:106F100040EA41102149C8600220FEF7C4F900226E
:106F20004FF480711D48FEF71DFE0220FEF7BBF9ED
:106F300000224FF400711948FEF714FE184800684B
:106F400020F4F850164908600846006804F01F0154
:106F500040EA0120124908601048C06820F4E0505F
:106F60000E49C8600846C06804F0E00140EA4110DC
:106F70000A49C860002289150A48FEF7F3FD02207D
:106F8000FEF791F9012211020648FEF7EBFD0122FE
:106F900051020248FEF7E6FD70BD000000100140FE
:106FA0000C0C01400008014010B502460B46107859
:106FB000012103E0545C60404C1CA1B29942F9DB12
:106FC00010BD00000FB4054B10B503A9044A029888
:106FD00000F0FEF810BC5DF814FB0000357C0008E2
:106FE000980100200FB4084B10B504A902AA039819
:106FF00000F0EEF8044602A9002000F080FC2046D4
:1070000010BC5DF814FB0000FF78000837B514468B
:107010000846064B6A46214600F0DAF804466946FF
:10702000002000F06CFC20463EBD0000FF78000808
:1070300000487047A401002002E008C8121F08C1E0
:10704000002AFAD170477047002001E001C1121FE9
:10705000002AFBD1704780F3108870472DE9FF5F4D
:10706000DDE90220010DDDF838B0024318D044F606
:107070001050A1F2FF3141430D140F98012820D088
:10708000A5EB0B00401C5FEA000A4FF00004474EDE
:10709000DFF81C91A046504616D5CAF1000728E03B
:1070A0000F98012443A2012808D0002100980F9BCB
:1070B000C0E90021C0E90243BDE8FF9F6FEA0B0170
:1070C000F4E7CBF10000DEE7074612E0F80707D04F
:1070D0002246334640464946FDF718F98046894620
:1070E0002246334610461946FDF710F904460E466F
:1070F0007F10002FEAD1DDE90201BAF1000F42460C
:107100004B4602DAFDF702F901E0FDF71CFB0446ED
:107110000E460022284BFDF7A3F903D84FF0FF30AD
:10712000014607E00022254B20463146FDF747F88F
:10713000FDF778FB102409E0002C0ADB0A2200236B
:10714000FDF7BCF9019B30321A55641E50EA01026A
:10715000F2D1641C019AC4F1110314440F9A012A5C
:1071600003D0012208430DD10AE0084304D00020D7
:107170004FF0110B0F9080E7A3EB0B056D1E0DE098
:107180005B4504DD4FF0000205F1010504E003DA80
:107190004FF00002A5F10105002AECD000980F99EC
:1071A000C0E90231C0E9004586E700000000244044
:1071B0000000F03F300000000000F0430000E03F1E
:1071C00030380A2801D201207047002070470000A3
:1071D0002DE9FF4F95B09B468946064600250FE2F4
:1071E000252877D100242746F84A0121059400E09C
:1071F000044316F8013F203B01FA03F01042F7D197
:1072000030782A2811D06FF02F033078A0F13002A7
:10721000092A16D8059A44F0020402EB820203EB15
:1072200042021044761C0590EFE759F8042B0592B2
:10723000002A03DA504244F40054059044F002045A
:10724000761C30782E2816D116F8010F44F004046D
:107250002A280DD06FF02F023078A0F13003092BCF
:1072600009D807EB870302EB4303C718761CF3E743
:1072700059F8047B761C30786C280FD006DC4C283B
:1072800017D068280DD06A2814D104E0742810D0D3
:107290007A280FD10DE044F400140AE044F480147D
:1072A00001E044F440147278824202D104F5801463
:1072B000761C761C307866280BD013DC582877D0E3
:1072C00009DC002875D04528F6D04628F4D0472898
:1072D0001AD19DE118E0632835D0642879D065285B
:1072E00012D195E1702873D008DC6728F1D06928A5
:1072F0006FD06E280DD06F2806D1B5E073282CD042
:10730000752875D0782874D05A46179990476D1C07
:1073100075E1C4F30250022809D003280DD0D9F832
:10732000001004280DD00D6009F1040967E1D9F8B7
:107330000010EA17C1E90052F6E7D9F800100D80F5
:10734000F2E70D70F0E719F8041B8DF8001000202B
:107350008DF80100EA46012003E059F804AB4FF034
:10736000FF3061074FF0000102D40DE008F1010188
:107370008846B9420FDA8045F8DB1AF80810002970
:10738000F4D108E008F1010188468142FADB1AF8DD
:1073900008100029F6D105985B46A0EB08072146A6
:1073A0003846179A00F094FA284400EB080507E0E5
:1073B0004DE029E10DE01AF8010B5A461799904764
:1073C000B8F10108F7D25B4621463846179A13E117
:1073D00042E00A220092C4F302524FF0000A022A4D
:1073E00008D059F804CB032A4FEAEC710AD00DE01B
:1073F00029E02AE009F1070121F00702F2E802C1C1
:10740000914609E00FFA8CFC4FEAEC71042A03D193
:107410004FFA8CFC4FEAEC71002907DA0A4600218A
:10742000DCF1000C61EB02012D2202E0220504D503
:107430002B228DF80420012203E0E20701D0202254
:10744000F7E7904659E00A2102E010220DE01021F2
:107450004FF0000A00910BE010224FF0000A44F0B8
:1074600004040827009203E008224FF0000A00926B
:10747000C4F30252022A05D059F804CB0021032A92
:1074800008D009E009F1070121F00702F2E802C182
:10749000914605E01FFA8CFC042A01D10CF0FF0C88
:1074A0004FF00008220728D5702806D0009B83F0F3
:1074B000100353EA0A0305D00EE040228DF80420A1
:1074C000012208E05CEA010206D030228DF8042097
:1074D0008DF8050002229046009B83F0080353EAD2
:1074E0000A030AD15CEA010201D1620705D5302204
:1074F0008DF804204FF001087F1E582804D034A0D6
:1075000003900EA802900DE036A0F9E753466046BE
:10751000009AFCF7D3FF84460398825C0298401ED1
:10752000029002705CEA0100F0D1029806A9081AE4
:1075300000F1200A600702D524F4803400E001271E
:10754000574502DDA7EB0A0000E0002000EB0A012E
:10755000009005984144401A0590E00306D45B462C
:107560002146179A059800F0B3F90544002706E074
:1075700001A85A46C05D179990476D1C7F1C47456E
:10758000F6DBE0030CD55B462146179A059800F020
:107590009FF9054404E030205A46179990476D1C26
:1075A0000099481E00900029F5DC08E00298029935
:1075B0005A460078491C0291179990476D1CBAF100
:1075C0000001AAF1010AF1DC65E1000009280100CF
:1075D0003031323334353637383961626364656649
:1075E000000000003031323334353637383941420B
:1075F000434445460000000000F058F90544761C5D
:10760000307800287FF4ECAD19B02846BDE8F08F43
:10761000620700D4062709F1070222F0070CFCE8F4
:107620000223E14603F000485FEA080C02D00FF2A3
:10763000702C0DE05FEA045C02D50FF2682C07E0C5
:107640005FEAC47C02D00FF2602C01E0AFF2700C54
:107650004FF0FF3823F00043CDF850C065280CD020
:1076600006DC452809D046281DD047283DD13DE0FD
:10767000662818D067287ED138E00021112F01DB61
:10768000112000E0781CCDE9000106A90EA8FFF743
:10769000E5FCDDE90F010E9A03910021009207F14C
:1076A000010A04914DE04FF000400097CDE9011030
:1076B00006A90EA8FFF7D2FCDDE90F0203920E9B8C
:1076C00011990022DDF80CA00093049211B9791CE5
:1076D00000EB010AB7EB0A0004D4C0F1FF3007F158
:1076E000010A0490AAEB0700019044E0012F00DAA0
:1076F00001270021112F01DD112000E03846CDE9DE
:10770000000106A90EA8FFF7A9FCDDE90F010E9AFA
:107710000391002104910092BA4621070CD40399E9
:10772000514500DA8A46BAF1010F05DD009AAAF147
:107730000101515C302908D0B84202DA10F1040F7F
:1077400006DA0121CDE9011015E0AAF10101E9E70E
:10775000002805DC049901440491AAEB000102E031
:10776000411C514500DD8A460499401A401C019095
:107770004FF000400290200704D40198504501DBEF
:10778000CDF8048000208DF84F0002980DF14F07CE
:10779000B0F1004F25D02B200E9002984FF0020838
:1077A00000280CDA404202902D200E9007E00A21BA
:1077B0000298FCF76DFE3031029007F8011DB8F118
:1077C0000001A8F10108F2DC02980028EFD1791E2F
:1077D0000E980870307800F0200040F0450007F85F
:1077E000020D12A8C01B00F107081498007800B120
:1077F000012000EB0A01019801EBE071059841447A
:10780000401A401E0590E00306D45B462146179AB5
:10781000059800F05DF805441498007818B15A46B0
:10782000179990476D1CE00324D55B462146179AB3
:10783000059800F04DF805441CE00498002807DB8B
:10784000DDE90301884203DD0098405C179901E0FF
:10785000179930205A469047049805F10105401CBD
:1078600004900198401E019004D12E205A46179989
:1078700090476D1CBAF10001AAF1010ADDDC05E0B8
:1078800017F8010B5A46179990476D1CB8F1000183
:10789000A8F10108F4DC5B462146179A0598ABE68F
:1078A0002D0000002B000000200000002DE9F04119
:1078B000044600251E461746880404D405E03946D0
:1078C0002020B0476D1C641EF9D52846BDE8F08124
:1078D0002DE9F041044600251E469046C80301D517
:1078E000302700E02027880404D505E041463846CB
:1078F000B0476D1C641EF9D52846BDE8F0810A68C2
:10790000531C0B60107070470FB430B5C1B0002528
:107910004FF4807101A8FCF724FC45A8009001A851
:10792000009A4499FFF772FB0020009001AC1CE024
:107930002078222805D11548007880F001001349ED
:10794000087012480078012802D0207820280BDD2A
:10795000207801A9495D884202D0207801A94855C4
:10796000641C681CC5B200E0641C20780028DFD1CC
:10797000207810B9002001A9485501A904A0FFF7FB
:1079800021FB41B030BC5DF814FB000090010020E9
:107990002573000001460148405C70475C000020F0
:1079A00070B50446002522E02568A08900F48070A7
:1079B00020B9A06810B1A068FFF7F2FFA08900F419
:1079C000807028B9206918B10A4920690968884778
:1079D000A08900F4007028B9206A18B10549206A0E
:1079E0000968884720460349096888472C46002CC7
:1079F000DAD170BD3000002070B505460E460DB1DD
:107A0000A86800E00020044600E024682CB131465C
:107A1000206A00F055F80028F7D1204670BD00001C
:107A200010B5282005490968884704461CB128215B
:107A30002046FCF796FB204610BD00002C000020DD
:107A400010B5044600221146204600F001F810BD92
:107A50002DE9F04781460D46904600240DB1284699
:107A600000E016480646FFF7DBFF074600203060BF
:107A70000FB9BDE8F087484601F07CFC82463246EB
:107A80005146384601F006F8044624B93846FFF757
:107A900087FF0020EDE7B8F1000F0BD0204601F082
:107AA00069FC0446207828B13846FFF779FF346036
:107AB0000020DEE705B12C603846DAE72800002018
:107AC00070B504460D462CB9AC4201D0012070BD02
:107AD0000020FCE70DB90120F9E705E0207808B99E
:107AE0000020F4E7641C6D1C2078FCF71BFB0646A5
:107AF0002878FCF717FB8642F0D02078FCF712FBC1
:107B000006462878FCF70EFB301AE0E71CB500208B
:107B1000094905230422CDE900109621074801F008
:107B200083FD0020064902230122CDE90010C8216F
:107B3000044801F079FD1CBD84010020540200209E
:107B40008B0100206C0200200021064A22F8101050
:107B5000054A22F81010054A42F820100121044A73
:107B600011547047500000204C00002054000020A9
:107B70005C00002008B5694640F2ED10FDF72CFCD2
:107B8000BDF800007D2804DABDF800001B4908702C
:107B900002E002201949087069464FF4F670FDF7BB
:107BA0001BFCBDF800007D2804DABDF80000134975
:107BB000487002E004201149487069464FF4F7709C
:107BC000FDF70AFC9DF90000012808DB9DF9000083
:107BD000052804DC9DF800000849887002E00520B3
:107BE00006498870694640F2EF10FDF7F5FB9DF8F5
:107BF00000000249C870204608BD00005E00002059
:107C000010B54200002105E0002300E05B1C934218
:107C1000FCDB491C9142F7DB10BD10B5034618464A
:107C200004E004788C4200D10270401C0478002CDF
:107C3000F7D110BD70B504460D46E1B20548FFF717
:107C4000ECF800BF80210348FFF71AF80128F9D1AA
:107C5000204670BD0038014010B5002821D0114BDE
:107C60000022001F196803E0814203D80A464968D0
:107C70000029F9D152B11368841A9C4204D10068DA
:107C800018441060104602E0506000E0186039B1FE
:107C900002680B1A934203D10B681A4402604968C8
:107CA000416010BD9C01002030B502460B4B53F8DB
:107CB0002230B1FBF3F403FB1413094C54F82240B7
:107CC000E05C064B53F82230B1FBF3F403FB1413D2
:107CD000034C54F822400025E55430BDA4A100080F
:107CE0004400002070B502460846CE1701EB167618
:107CF000C6F30714CE1701EB16763611A1EB061664
:107D0000F5B2074800EB021030F814000126AE402F
:107D100000EA06030BB1012070BD0020FCE7000063
:107D20009A0E00200FB53248006800903048001DC0
:107D3000006801902E48083000680290DDE90001DB
:107D40000844029908440390039800F00F00294961
:107D5000C8710398C0F3031088710398C0F303201F
:107D600048710398C0F3033008710398C0F30340CF
:107D7000C8700398C0F3035088700398C0F3036081
:107D800048700F21039801EA10701A4908700846DC
:107D9000407800F00F000978F02202EA0111084350
:107DA000154908701348C07800F00F001149897810
:107DB00002EA01110843104948700E48407900F06A
:107DC0000F000C49097902EA011108430A49887039
:107DD0000848C07900F00F000649897902EA0111CC
:107DE00008430549C8700548096841600FBD000097
:107DF000E8F7FF1F6C0100205814002071150020C7
:107E0000014800787047000092010020F0B585B06D
:107E1000002408E0404A02EB440104F5F270FDF74B
:107E2000DBFA601CC4B2082CF4DB00252FE02946E5
:107E30000020FFF757FF0646012E26D14FF6FF70B0
:107E400000EA8507002417E003AA02EB44013A196F
:107E500090B2FDF7C1FA03A810F8140005EB8501F4
:107E60002E4A02EB4101085505EB8500114601EB56
:107E700040008580601CC4B2042CE5DB2748B0F8C4
:107E8000B004401C2549A1F8B004681C85B2782DC7
:107E9000CDDB69464FF4F170FDF79EFABDF80000A6
:107EA000782805DCBDF800001C49A1F8B20403E005
:107EB00000201A49A1F8B20402A940F2E310FDF72C
:107EC0008BFABDF80800154981F8B90401A94FF4EF
:107ED000F870FDF781FABDF80400114908740846EE
:107EE000007C012811D100240DE003AA02EB44011B
:107EF00004F2F110FDF770FA03A810F81400084915
:107F00000855601CC4B2042CEFDB0120034981F842
:107F1000BA0405B0F0BD00009A0E00209A0F0020B0
:107F20005814002070B504460D4600BF02212046BB
:107F3000FEF7B8FB0028F9D029462046FEF7BEFB25
:107F400000BF01212046FEF7ADFB0028F9D02046F6
:107F5000FEF7B1FBC0B270BD38B504460B4951F80D
:107F600024000121FEF7CAF9094830F81400ADF8E1
:107F7000000010208DF8030003208DF80200054951
:107F800051F824006946FDF715FD38BDB4A100087D
:107F9000ACA100086400002008B1012807D10A49FB
:107FA00031F81010094A52F8202011610AE0032824
:107FB00001D0022806D1044931F81010034A52F8C2
:107FC0002020516170470000ACA10008640000202F
:107FD00008B1012807D10A4931F81010094A52F8AE
:107FE000202051610AE0032801D0022806D104496B
:107FF00031F81010034A52F8202011617047000038
:10800000ACA1000864000020064951F82010C9689E
:10801000054A32F810205140024A52F82020D1601F
:108020007047000064000020ACA10008FEF7CAF809
:1080300005E0FCF7B3FFFDF71FF9FCF7CFFEF8E70B
:10804000F0B50B30154D20F007010024144A0FE065
:1080500003688B420BD38B4205D95E1A43184768DD
:10806000C3E9006700E04368136002C004E0021D3A
:1080700010680028ECD12046002802D1286808B1F9
:108080000020F0BD064A07481060074A121A22F085
:108090000702C0E9002401202860D7E7A0010020E2
:1080A0009C0100206C2C00206834002008B50121C0
:1080B0003C48FDF70BFD01211C20FEF71FF94FF492
:1080C0007070ADF8000003208DF8020010208DF8CC
:1080D000030069463448FDF76DFC00224021324818
:1080E000FDF740FD00224FF480712F48FDF73AFD67
:1080F000012251022C48FDF735FD002280212A483B
:10810000FDF730FD4FF48070ADF8000003208DF8CE
:10811000020010208DF8030069462448FDF74AFC50
:10812000012211022148FDF71DFD4FF40040ADF87A
:10813000000003208DF8020010208DF8030069462E
:108140001A48FDF737FC0122D1031848FDF70AFD54
:108150004FF4F850ADF8000003208DF80200102015
:108160008DF8030069461248FDF724FCBDF80010A5
:1081700000220F48FDF7F6FC4FF4E050ADF8000088
:1081800003208DF8020010208DF803006946064890
:10819000FDF710FCBDF8001000220348FDF7E2FCDB
:1081A00008BD00000002300000100140000801403E
:1081B000000C014070B500244FF40055FFF776FF26
:1081C000002240213648FDF7CDFC40F6C410FDF7F3
:1081D0006AF8012240213248FDF7C4FC4FF47A705E
:1081E000FDF761F8002240212D48FDF7BBFC4FF45C
:1081F0009670FDF758F800BF0120FEF795F900F0E2
:108200003F0020B1281EA5F101018DB2F4D105B9BE
:1082100001246CB980210020FEF75AFE0120FEF7F0
:1082200083F908B1012403E000210846FEF750FE5F
:108230009CBB00211F20FEF74BFE1420FDF733F8F6
:1082400040211F20FEF744FE1420FDF72CF84021AA
:108250001F20FDF719F8AD211B20FEF739FEFF2185
:108260001C20FEF735FE41211E20FEF731FE1A21AB
:108270002920FEF72DFE02212B20FEF729FE0221E8
:108280002D20FEF725FE5B211120FEF721FE3F2168
:108290001220FEF71DFEFDF7FFFC204670BD00001A
:1082A0000010014000B589B001211520FEF726F825
:1082B00001210803FEF712F84020ADF8200003204A
:1082C0008DF8220018208DF8230008A94648FDF7F4
:1082D00071FB8020ADF8200003208DF822001820CB
:1082E0008DF8230008A94048FDF764FB2020ADF875
:1082F000200003208DF8220018208DF8230008A903
:108300003948FDF757FB1020ADF8200003208DF809
:10831000220010208DF8230008A93348FDF74AFBFE
:108320001020ADF8200003208DF8220010208DF8D9
:10833000230008A92D48FDF73DFB2020ADF82000C3
:1083400004208DF8230008A92848FDF733FB0020FE
:10835000ADF80C004FF48270ADF80E000020ADF8BF
:108360001000ADF81200ADF814004FF40070ADF835
:1083700016002020ADF818000020ADF81A000720E4
:10838000ADF81C0003A91A48FEF79AF9052102204E
:10839000FDF7F0FA2020009000208DF804000C205A
:1083A0008DF8050001208DF806006846FDF7B4F849
:1083B0004FF4A060FDF75CFC17208DF8080000204A
:1083C0008DF809008DF80A0001208DF80B0002A835
:1083D000FDF716FC01210648FEF758F91020024966
:1083E0001031086009B000BD0008014000100140D4
:1083F0000030014000B587B001210920FDF77EFF64
:1084000001218803FDF76AFF4FF48040ADF81800A2
:1084100003208DF81A0018208DF81B0006A9364895
:10842000FDF7C8FA4FF40040ADF8180003208DF8AE
:108430001A0018208DF81B0006A92F48FDF7BAFA7C
:108440004FF40050ADF8180003208DF81A001820E2
:108450008DF81B0006A92848FDF7ACFA0820ADF8F6
:10846000180003208DF81A0010208DF81B0006A9B3
:108470002148FDF79FFA1020ADF8180003208DF871
:108480001A0010208DF81B0006A91B48FDF792FA70
:108490002020ADF8180004208DF81B0006A916480E
:1084A000FDF788FA0020ADF804004FF48270ADF8B3
:1084B00006000020ADF80800ADF80A00ADF80C0089
:1084C0004FF40070ADF80E001820ADF81000002039
:1084D000ADF812000720ADF8140001A90748FEF717
:1084E000EFF801210548FEF7D1F8082002491031C4
:1084F000086007B000BD0000000C014000380040DB
:1085000010B5FFF7CFFEFFF775FF10BD2DE9F05F47
:1085100006460C4617464FF00009002520785B28D8
:1085200001D03C604AE0601C00F024FF0446207843
:108530005D2800D13BE0FFF773FA0546814605B997
:108540003CE0204600F016FF82463A465146284657
:1085500000F0A0FA804600F00DFF044604B92DE0BB
:108560001CE04FF00008FFF75BFAB0F1000800D103
:1085700024E0C5F80080C8F804504546601C00F0AF
:10858000F9FE83463A465946284600F083FA824669
:1085900000F0F0FE044604B910E000BF20782C285B
:1085A000DFD020785D2800D101E03C6006E020208B
:1085B000F060C6F80890601CBDE8F09F15B1284631
:1085C000FFF7EEF90020F7E701460022002300BF85
:1085D00024E00878302806DB0878392803DC08789E
:1085E0003038024415E00878412806DB0878462830
:1085F00003DC0878373802440BE00878612806DB92
:108600000878662803DC08785738024401E0002027
:108610007047032B01D21201491C5B1C042BD8D3D9
:108620001046F5E7F8B506460F4600BF002000905B
:1086300007B9F8BD6946384600F0D6FF04460D4636
:108640000098874200D00FB90020F2E7C6E906453E
:108650000F4A104B20462946FBF702FF03D86FF064
:10866000004070610FE000220B4B20462946FBF7CB
:10867000DFFE03D84FF00040706104E02046294639
:10868000FBF7B6FE70610820F0600098D1E70000AB
:108690000000C0FFFFFFDF410000E0C12DE9F05FF7
:1086A00007460C4616464FF00009002520787B2827
:1086B00001D034607AE0601C00F05CFE0446207853
:1086C0007D2800D16BE0FFF7ABF90546814605B97F
:1086D0006CE0204600F04EFE824632465146284667
:1086E00000F0BAF8804600F045FE044604B95DE0AB
:1086F000286928620020286120783A2801D0346057
:1087000054E0601C00F036FE824632465146284650
:1087100000F0C0F9804600F02DFE044604B945E0A3
:1087200034E04FF00008FFF77BF9B0F1000800D10A
:108730003CE0C5F80080C8F804504546601C00F0D5
:1087400019FE834632465946284600F085F882468F
:1087500000F010FE044604B928E0286928620020D1
:10876000286120783A2801D034601FE0601C00F0B6
:1087700001FE834632465946284600F08BF9824670
:1087800000F0F8FD044604B910E000BF20782C2862
:10879000C7D020787D2800D101E0346006E0402079
:1087A000F860C7F80890601CBDE8F09F15B1284636
:1087B000FFF7F6F80020F7E73EB5044600200090EA
:1087C00001900290206800906846FBF7EBFC21497D
:1087D00008810020009001900290B4F80500ADF8E7
:1087E00000006846FBF7DEFC1A4988710020009003
:1087F000019002902089ADF800006846FBF7D2FC9A
:10880000144948710020009001900290B4F80B00C8
:10881000ADF800006846FBF7C5FC0E490871002062
:10882000009001900290E089ADF800006846FBF7E7
:10883000B9FC0849C8700020009001900290B4F87B
:108840001100ADF800006846FBF7ACFC01498870E8
:108850003EBD0000840200202DE9F74F82B00F4694
:1088600090467D1CA9460024A346A246002600206F
:1088700001903878222802D0C8F80070FBE00BE0A5
:1088800019F8011B5C2905D199F8000000B9F2E044
:1088900009F101090AF1010A99F80000222803D020
:1088A00099F800000028EBD10AF101007649096827
:1088B00088478346BBF1000F00D1DCE05C46C7E08F
:1088C00028785C2804D015F8010B04F8010BBFE0F0
:1088D0006D1C2878662816D008DC222823D02F2883
:1088E00023D05C2820D0622870D108E06E280ED0FA
:1088F000722810D0742812D07528F5D119E00820FC
:1089000004F8010BA2E00C2004F8010B9EE00A2001
:1089100004F8010B9AE00D2004F8010B96E0092001
:1089200004F8010B92E000BF00BF287804F8010BA7
:108930008CE0681CFFF748FE06462D1D4D4502D30E
:10894000C8F8007097E0B6F55C4F02D3B6F5604FFB
:1089500000D316B9C8F800708DE0B6F5584F28D38B
:10896000B6F55C4F25D2A81D484502D9C8F800705D
:1089700081E068785C2802D1A878752802D0C8F810
:10898000007078E0E81CFFF71FFE0190AD1D019814
:10899000B0F55C4F03D30198B0F5604F02D3C8F82F
:1089A000007068E0C6F30901019861F39F2000F5AB
:1089B00080364FF0040A802E02D24FF0010A0BE0FD
:1089C000B6F5006F03D24FF0020A05E03BE0B6F5C2
:1089D000803F01D24FF0030A5444BAF1010F23D073
:1089E000BAF1020F17D0BAF1030F0BD0BAF1040F8E
:1089F00023D106F0BF0040F08001601E04460170E4
:108A0000B60900BF06F0BF0040F08001601E0446BA
:108A10000170B60900BF06F0BF0040F08001601E83
:108A200004460170B60900BF184810F80A00304328
:108A3000C1B2601E0446017002E0C8F800701AE07E
:108A400000BF544402E0C8F8007014E000BF6D1C81
:108A50004D45FFF435AF002020702878222800D142
:108A60006D1C10210298C1600298C0F810B0284611
:108A700005B0BDE8F08FBBF1000F03D058460449A4
:108A8000096888470020F3E72C0000209CA100081B
:108A90003000002070B505460C4616460CB9002083
:108AA00070BD042225A12046FBF76DFB18B90420F8
:108AB000E860201DF4E7052222A12046FBF763FBB6
:108AC00018B90120E860601DEAE704221FA12046D2
:108AD000FBF759FB28B90220E86001206861201DDE
:108AE000DEE72078222805D1324621462846FFF7C6
:108AF000B3FED5E720782D2805D02078302807DB75
:108B00002078392804DC21462846FFF78BFDC7E78B
:108B100020785B2805D1324621462846FFF7F6FC2F
:108B2000BEE720787B2805D1324621462846FFF74C
:108B3000B5FDB5E734600020B2E700006E756C6CDF
:108B40000000000066616C7365000000747275655A
:108B50000000000010B5A5215A2000F02BFD0446AE
:108B60001920FFF74DF8A6215B2000F023FD0446F5
:108B70001920FFF745F8FB21802000F01BFD04467B
:108B80004120FFF73DF8A6215B2000F013FD0446CD
:108B90001920FFF735F8A5215A2000F00BFD0446F7
:108BA0001920FFF72DF80021632000F003FD044693
:108BB00040F28A20FFF724F810BD000070B542F2A1
:108BC00010750820344908600720FDF7B3FD0446FE
:108BD00003E00720FDF7AEFD044604F0400018B99D
:108BE000281EA5F10105F4D10A20FFF709F8A721F5
:108BF0005C2000F0DFFC04460A20FFF701F80021AA
:108C00002C2000F0D7FC04460A20FEF7F9FFA9212A
:108C10005E2000F0CFFC04460A20FEF7F1FFA521FC
:108C20005A2000F0C7FC04460A20FEF7E9FFC020E6
:108C3000FDF780FD1520FDF77DFD06460A20FEF7B5
:108C4000DFFF0021162000F0B5FC04460A20FEF7E5
:108C5000D7FFA5215A2000F0ADFC04460A20FEF7FC
:108C6000CFFF00212C2000F0A5FC04460A20FEF7CF
:108C7000C7FFA9215E2000F09DFC04460A20FEF7F4
:108C8000BFFF0021632000F095FC04466420FEF73E
:108C9000B7FF304670BD0000100C0140014800785D
:108CA00070470000840100200149087070470000EF
:108CB0008401002070B50446FFF7F0FF064610A1BE
:108CC0002046FEF799FE05690EA0FEF71DFE0B2259
:108CD0000DA12846FBF757FA10B90EA0FEF714FEB7
:108CE0000A2213A12846FBF74EFA10B913A0FEF78B
:108CF0000BFE18A0FEF708FE1BA0FEF705FE70BDD8
:108D000066756E007B0D0A0062696E645F73746144
:108D10007274000020202266756E223A2022626959
:108D20006E645F7374617274222C0D0A000000007F
:108D300062696E645F73746F7000000020202266A9
:108D4000756E223A202262696E645F73746F7022BE
:108D50002C0D0A00202022726573756C74223A2053
:108D60002230220D0A0000007D0D0A0010B50446D5
:108D70000BA0FEF7C9FD0BA0FEF7C6FD1148016868
:108D800011A0FEF7C1FD17A0FEF7BEFD1EA0FEF765
:108D9000BBFD28A0FEF7B8FD2DA0FEF7B5FD10BD68
:108DA0007B0D0A0020202266756E223A202267651C
:108DB000745F6465766963655F696E666F222C0D0A
:108DC0000A000000581400202020226465766963A0
:108DD000655F6964223A20222530313075222C0DDE
:108DE0000A000000202022736F6674776172655F4D
:108DF00076657273696F6E223A202276302E312E9C
:108E000030222C0D0A000000202022686172647755
:108E10006172655F76657273696F6E223A20225ABD
:108E20004C2D52503535312D4D41494E2D46222C79
:108E30000D0A0000202022636F6D70616E79223A66
:108E400020227A6B786C74656368220D0A0000003A
:108E5000207D0D0A000000002DE9F04188B03E4859
:108E60000088002874DD3D48007840F265414843A1
:108E70003B4901EB8005222227212846FEF7CDFE43
:108E80000E2205F108016846FBF752F933490978CB
:108E900040F265425143324A02EB8100FEF7D0FDB9
:108EA000064666B92FA0FEF72FFD2FA0FEF72CFD7A
:108EB00032A0FEF729FD3BA0FEF726FD37E0002497
:108EC000002739A13046FEF797FDD0F8108018E052
:108ED00004EB4400354B03EB8000027904EB4400C3
:108EE00053F820104046FBF74EF940B904EB44001C
:108EF0002E4A02EB80008168304688470127601CBB
:108F0000C4B204EB4400294901EB800080680028CA
:108F1000DED15FB913A0FEF7F7FC13A0FEF7F4FC57
:108F200023A0FEF7F1FC1FA0FEF7EEFC00BF3046C9
:108F3000FEF736FD08480088401E0749088041F2C8
:108F400094112846FBF70DF900200449087000BF72
:108F500008B0BDE8F08100007C0100208C010020F9
:108F6000611800207B0D0A0020202266756E223ACF
:108F700020224572726F72222C0D0A00202022647A
:108F800065736372697074696F6E223A20226A7326
:108F90006F6E2073796E746178206572726F7221C2
:108FA000220D0A007D0D0A0066756E00C4A100083E
:108FB0002020226465736372697074696F6E223A4F
:108FC0002022756E6B6E6F7720636D6421220D0A0F
:108FD000000000002DE9F04707464FF0000800248C
:108FE0002FA13846FEF708FDD0F810904846FBF751
:108FF000D9F8C5B255B900202B4981F8BC04FFF758
:1090000053FEFCF7C0FFFCF747FE2BE027A13846D4
:10901000FEF7F2FCD0F810904846FBF7C3F8C4B254
:109020000D2C15DC244951F8240000F0D3FD23A1B8
:109030003846FEF7E1FC06693046FFF7BDFB01202C
:10904000194981F8BC04FFF72FFE4FF0000806E035
:109050001949086800F0BEFD00244FF0FF38194898
:10906000047000BF18A0FEF74FFC18A0FEF74CFCE0
:10907000114850F8240001681CA0FEF745FC0DB112
:1090800020A000E021A0014622A0FEF73DFC4146C1
:1090900026A0FEF739FC2AA0FEF736FCBDE8F087D3
:1090A00073657474696E67009A0F002070726F5F49
:1090B000696E6465780000003001002074696D6598
:1090C000000000008F0100207B0D0A002020226696
:1090D000756E223A2022736932347232655F61758F
:1090E000746F5F6275726E222C0D0A002020227050
:1090F000726F5F6E616D65223A20222573222C0DFE
:109100000A000000737461727400000073746F7061
:109110000000000020202273657474696E67223A93
:1091200020222573222C0D0A00000000202022722C
:109130006573756C74223A20222564220D0A0000A2
:109140007D0D0A0010B5064B53F82030B1FBF3F447
:1091500003FB1413034C54F82040E25410BD0000EC
:10916000A4A10008440000200149087070470000D5
:10917000920100202DE9F04107464FF000083C46DF
:1091800008206E490860002600E0761C42F210704C
:109190008642FADB0720FDF7CDFA05461920FEF7D7
:1091A0002FFD1920FEF72CFDA7215C2000F002FA0C
:1091B00005461920FEF724FD00212C2000F0FAF9C5
:1091C00005461920FEF71CFDA9215E2000F0F2F9EA
:1091D00005461920FEF714FDA5215A2000F0EAF9F2
:1091E00005464120FEF70CFD002674E006F1C001A3
:1091F000C8B2FDF79FFA1520FDF79CFA05461C2E14
:1092000066D2DFE806F04643446565656545484932
:109210004A4B4C470E65656565654D505356595C24
:109220005F620020002105F00702082A18D2DFE85B
:1092300002F004070A0D0F1113156FF00B0010E078
:109240006FF005000DE06FF003000AE0002008E079
:10925000012006E0032004E0042002E0072000E0F3
:1092600000BF00BF05F02802D21022B1012A05D0AC
:10927000042A08D105E04FF47A7105E04FF4FA6151
:1092800002E0FA2100E000BF00BF22E021E020E080
:109290001FE01EE01DE01CE01BE01AE019E018E0F2
:1092A0002570641C15E02570641C12E02570641C98
:1092B0000FE02570641C0CE02570641C09E025702B
:1092C000641C06E02570641C03E02570641C00E04B
:1092D00000BF00BF761C402E88DB1920FEF790FCF3
:1092E0000021162000F066F900F0FF08A5215A20A1
:1092F00000F060F905461920FEF782FC00212C20C1
:1093000000F058F905461920FEF77AFCA9215E20E5
:1093100000F050F905461920FEF772FC0021632089
:1093200000F048F905461920FEF76AFC4FF47A7000
:10933000FEF766FC4046BDE8F0810000100C0140DD
:1093400070B504460026082009490860002500E0A1
:109350006D1C42F210708542FADBFFF72FFC0646C7
:109360000EB1FFF7F7FB2146002000F0BDFB70BDFA
:10937000100C014000E0401C20B1017811B10178CF
:109380002029F8DD704700002DE9F04705468846A2
:109390000024A2460027C1460AE01B4830F8150009
:1093A000204481B22846FEF77FFC8246601CC4B28E
:1093B000BAF15C0FF1D1144830F81500204481B2A5
:1093C0002846FEF771FC074600260FE00E4830F8ED
:1093D000150030442044401C81B22846FEF764FC4E
:1093E00089F8000009F10109701C86B2BE42EDDB6C
:1093F0003819801C81B2284600F0C6FA284600F0D1
:10940000E9FA3846BDE8F087500000202DE9F04326
:10941000ADF5017D07460C4616460025A846A9462F
:1094200000202070FF22114641A8FAF793FE862003
:109430008DF8000106202949087188461020284926
:10944000086001016846FAF78CFE00BF1BE018F8BF
:1094500005103846FEF766FD0DF80500032D10D106
:109460009DF8000086280CD19DF80300FF2808DA3B
:109470009DF80300207019480079217808441749A5
:109480000871681CC5B215480079A842DFDC1020BD
:109490001349091F086011480079C01E81B20DF1FF
:1094A0000100FDF781FD81460C480079801E1DF802
:1094B000000048450FD19DF802003070227801A9C4
:1094C000701CFAF735FE2078401C207000200DF546
:1094D000017DBDE8F0830120F9E700006C14002055
:1094E000140801401CB500200A4903230222CDE9DB
:1094F000001040F6B831084800F096F80020054901
:1095000006230522CDE900106421044800F08CF800
:109510001CBD000092010020240200203C0200201B
:109520002DE9F04705460F461446B8462046E11798
:1095300004EB11610912A4EB012101F0FF091C48A1
:1095400030F815105C222846FFF7FCFD184830F86B
:109550001500401C81B24A462846FFF7F3FD01265C
:109560000EE098F80020124830F81500401C3044F6
:1095700081B22846FFF7E6FD08F10108701C86B2AB
:10958000601C8642EDDB0A4830F815002044801C40
:1095900081B2CA222846FFF7D5FDE01C81B22846D9
:1095A00000F052FA284600F075FABDE8F087000096
:1095B0004C0000202DE9F04106460C4608200949E0
:1095C00008603046FDF79AF805462046FDF796F804
:1095D000074608200349091F086007EB05252846B0
:1095E000BDE8F081140C014000B583B00A460021AB
:1095F000CDE9001101466846FAF7DDFFDDE900011B
:1096000003B000BD10B50446012080F3108800BFF0
:1096100004480021826D20469047002080F3108886
:1096200000BF10BDA80100202DE9F04704460D46FB
:1096300016461F46DDE90889E56026746774C4F89C
:109640000080C4F814900348416C20468847BDE868
:10965000F0870000A8010020014688687047014695
:109660000868007870478168491C81607047000075
:1096700001460C4890F84C00112810DA094890F87F
:109680004C2090F84C00401C064B83F84C001846C8
:1096900040F8221090F84C0008710020704701201B
:1096A000FCE70000A801002081607047026811708B
:1096B00070470000002005E000210D4A42F820100C
:1096C000411CC8B21128F7DB0021094A82F84C106E
:1096D0000849516408499164084911650849516570
:1096E000084991650849D16508491166704700002D
:1096F000A80100207196000811970008AD96000897
:109700005F960008A9960008599600086796000819
:10971000014600200A79024B43F8220070470000FE
:10972000A80100201CB50C480C4901230022CDE9FA
:10973000001064210A48FFF777FF4FF4FC600949E5
:10974000088101208871487100200871C8708870F4
:10975000088088721CBD0000699700083C0000204A
:109760000C0200208402002010B500201749087068
:109770001748008864301649088008460088B0F50C
:109780007A7F22DB00200880FCF718FA10488078E6
:10979000401C0F498870084680783C2815DB002063
:1097A00088700846C078401CC8700846C0783C28BD
:1097B0000BDB0020C87008460079401C0871084681
:1097C0000079182801DB0020087110BD3C00002042
:1097D0008402002010B5044650480078012802D0C9
:1097E000022876D121E07B2C1ED100204C49088034
:1097F0004C4908700220494908704A480078401CCA
:10980000484908704848007840F265414843474954
:1098100001EB8001424802880088401C404B1880C0
:109820008C5401204249087075E0222C01D0272C6D
:1098300005D14048007880F001003E4908703D485D
:109840000078012801D0202C63DD3748007840F2F1
:1098500065414843354901EB800131480288008861
:10986000401C2F4B18808C547B2C04D12D48007841
:10987000401C2C4908702A48008841F29411884203
:1098800028DD00202A4908700120244908702AA0F8
:10989000FEF73AF829A0FEF737F82DA0FEF734F8C6
:1098A00035A0FEF731F82049097840F2654251436E
:1098B0001E4A02EB810041F29411FAF752FC00209B
:1098C00017490880174908702C4908602C490880FE
:1098D00021E01FE07D2C1CD112480078401E114968
:1098E000087008460078A0B925480088012807DAE2
:1098F00000200D49087022480088401C204908803B
:109900000020074908800120044908700020084908
:10991000087000E000BF00BF10BD0000790100200A
:10992000800100207A0100207E01002061180020C3
:1099300078010020820100207B0D0A00202027668C
:10994000756E273A20274572726F72272C0D0A0018
:109950002020276465736372697074696F6E273A9B
:10996000202775617274206275666665722066755F
:109970006C6C21270D0A00007D0D0A007401002087
:109980007C0100207047000070B504460D460120A0
:10999000FDF761FB0C4850F82400401B0A4941F8D0
:1099A00024000A4830F814002844094951F82410CA
:1099B000B0FBF1F201FB1200044921F81400002071
:1099C000FDF749FB70BD000054000020500000204E
:1099D000A4A1000800B502461046FDF7DBFF0346D0
:1099E000012B04D0022B03D0032B21D11CE020E05B
:1099F000114850F82200002803DD02200F49885446
:109A000011E00D4850F8220018B901200B49885484
:109A100009E00120094988540020094921F8120071
:109A2000084921F8120004E002200449885400E0AB
:109A300000BF00BF00BD0000540000205C000020FB
:109A40004C0000205000002070B504460D46012057
:109A5000FDF701FB0C4850F8240028440A4941F85E
:109A600024000A4830F814002844094951F8241009
:109A7000B0FBF1F201FB1200044921F814000020B0
:109A8000FDF7E9FA70BD0000540000204C000020F2
:109A9000A4A1000800B502461046FDF77BFF03466F
:109AA000012B02D0022B15D103E002200B49885470
:109AB00011E00B4850F822100A4850F82200F938FB
:109AC000814203D903200549885402E0022003495A
:109AD000885400E000BF00BF00BD00005C00002013
