:020000040000FA
:1000000060200020150100002F01000031010000D8
:1000100000000000000000000000000000000000E0
:10002000000000000000000000000000330100009C
:100030000000000000000000350100003701000052
:1000400039010000510400003901000039010000AD
:10005000F90400000000000039010000390100002F
:1000600039010000390100003901000039010000A8
:100070003901000039010000390100003901000098
:1000800039010000D10400003901000039010000ED
:100090000D0500007D050000390100003901000058
:1000A00039010000390100000000000000000000DC
:1000B0000000000000000000000000000000000040
:1000C0000348854600F096F800480047B11200004A
:1000D00060200020401E00BF00BF00BF00BF00BF67
:1000E00000BF00BF00BF00BF00BF00BF00BFF1D115
:1000F00070470000401E00BF00BF00BF00BF00BF30
:1001000000BF00BF00BF00BF00BF00BF00BFF1D1F4
:10011000704700000321094802680A43026008484A
:1001200002680A4302600748804707480047FEE725
:10013000FEE7FEE7FEE7FEE7FEE7000024050040DD
:100140005405004085050000C100000003460B4334
:100150009B0703D009E008C9121F08C0042AFAD27D
:1001600003E00B780370401C491C521EF9D2704703
:10017000D2B201E00270401C491EFBD2704700223F
:10018000F6E710B513460A4604461946FFF7F0FF96
:10019000204610BDF0B51FB40646002082B00546CB
:1001A0004024019100901BE0019922460F46304601
:1001B00000F042F8049A059B801A994110D310462A
:1001C0001946224600F028F8361A8F410197224638
:1001D00001200021009F00F01FF838184D410090C9
:1001E0002046641E0028DFDC019B00982946324629
:1001F00007B0F0BD064C0125064E05E0E36807CCCC
:100200002B430C3C98471034B442F7D3FFF75CFF04
:10021000442800006428000010B5202A04DB0146B1
:10022000203A9140002010BD914020239C1A0346A3
:10023000E3401943904010BD10B5202A04DB084666
:10024000203AD040002110BD0B46D340D04020249E
:10025000A21A91400843194610BD0000C206D20EF2
:1002600001219140014A11607047000080E200E0E6
:10027000C206D20E01219140014A11607047000070
:1002800080E200E0C206D20E01219140014A1160D5
:100290007047000080E100E0C206D20E01219140CB
:1002A000014A11607047000000E100E0C206D20E72
:1002B00001219140014A11607047000000E100E017
:1002C000C206D20E01219140014A11607047000020
:1002D00000E200E0C206D20E01219140014A116005
:1002E0007047000000E200E010B5002819DA1A4A51
:1002F00003071B0F083B9B089B00D2588307DC0EAB
:10030000FF23A3409A438B071B0E8407E40EA340F0
:100310001A43114B0407240F083CA408A4001A51E7
:1003200018E00E4A03231B02D21883089B00D25800
:100330008307DC0EFF23A3409A438B071B0E840721
:10034000E40EA3401A43054B032424021B1984081E
:10035000A4001A5110BD00001CED00E000E100E017
:1003600010B5002819DA1A4A03071B0F083B9B082F
:100370009B00D2588307DC0EFF23A3409A438B07D0
:100380001B0E8407E40EA3401A43114B0407240FED
:10039000083CA408A4001A5118E00E4A03231B02CB
:1003A000D21883089B00D2588307DC0EFF23A3409A
:1003B0009A438B071B0E8407E40EA3401A43054B98
:1003C000032424021B198408A4001A5110BD000044
:1003D0001CED00E000E100E010B5002819DA1A4A2F
:1003E00003071B0F083B9B089B00D2588307DC0EBA
:1003F000FF23A3409A438B071B0E8407E40EA34000
:100400001A43114B0407240F083CA408A4001A51F6
:1004100018E00E4A03231B02D21883089B00D2580F
:100420008307DC0EFF23A3409A438B071B0E840730
:10043000E40EA3401A43054B032424021B1984082D
:10044000A4001A5110BD00001CED00E000E100E026
:1004500010B51B480068002808D01A484068C0073B
:10046000C00F002802D00020154908601448C06859
:1004700000280FD01348406808210840002809D000
:1004800000200F49C86010480068002802D00E48BC
:10049000006880470A48006900280FD00948406872
:1004A00010210840002809D00020054908610748AC
:1004B0000068002802D005480068804710BD000091
:1004C00000110040001300403C00002038000020D4
:1004D00010B500200749086000210648416081608E
:1004E000C1600020034940390860486001F0EEFF18
:1004F00010BD00004011014010B50249024801F052
:1005000027FE10BD48180020004000403EB51948A5
:100510000068019002A801F00BF90446002C27D1D5
:1005200015480068002823D00298C007C00F002893
:1005300006D000206946087068460F490968884758
:10054000022102980840002806D001206946087060
:10055000684609490968884704210298084000282C
:1005600006D0022069460870684603490968884732
:100570003EBD0000300000201000002010B501F04A
:10058000D9FE10BD10B500F061FD002805D010485F
:1005900010494860C8131049886100F03BFD0028ED
:1005A00002D001200D49886000F086FD00280ED0A1
:1005B0000B480068012807D00A480949086000BFB5
:1005C000074800680128FBD1C0200549486110BDDB
:1005D000DFFF07C000050040006C0040000600403F
:1005E00000EC06407593000010B502460B461078EB
:1005F000012103E0545C60404C1CA1B29942F9DB3C
:1006000010BD00000FB410B503A9044B044A0298B2
:1006100000F018F810BC08BC04B01847BD0F00006B
:100620006C00002002E008C8121F08C1002AFAD19D
:1006300070477047002001E001C1121F002AFBD162
:1006400070470000FFB591B00F460546002606E052
:1006500025280AD0149A139990476D1C761C287887
:100660000028F5D1304615B0F0BD002400940121DA
:10067000F34A029400E004436D1C2B780846203BAB
:1006800098401042F7D128782A280ED002212878E5
:100690000246303A092A15D8009A0A235A43303ABA
:1006A00080180C436D1C0090F1E701CF00900028EA
:1006B00005DA0120400304430098404200900220E4
:1006C00004436D1C28782E2815D104200443687833
:1006D0006D1C2A280AD101CF6D1C02900BE00299F3
:1006E0000A225143303940186D1C02902878014687
:1006F00030390929F3D928786C2810D006DC4C2829
:100700001AD068280ED06A2817D104E0742813D0B4
:100710007A2812D110E00120400504430CE00121A9
:10072000090501E0032109050C436978814203D1E1
:100730000120000524186D1C6D1C287803906E287C
:100740001ED00CDC632831D004DC00288AD0582865
:1007500011D1B2E064287BD069280CD178E07328ED
:100760002DD004DC6F2870D0702804D1A7E0752844
:100770006CD078286BD0149A13999047761C62E05D
:100780006002400F022807D003280AD004283868E6
:100790000AD006603F1D56E03868F11706604160D8
:1007A000F8E738680680F5E70670F3E738786946B9
:1007B00008740020487404A80390012003E03868FE
:1007C00003900020C0433F1D61070FD5002101E0C9
:1007D0000199491C029A0191914213DA8142F7DB97
:1007E000019A0399895C0029F2D10BE0002101E014
:1007F0000199491C01918142FADB019A0399895CB4
:100800000029F5D101990098139A401A00902146C9
:10081000149B00F03BF901998019461807E00398F2
:1008200003990078491C0391149A139990470198F1
:10083000401E0190401CF2D12146149B139A00984F
:1008400000F014F986196D1C09E741E033E034E04B
:100850000A200021049005916002410F022905D071
:1008600001CFC2179446032905D007E0FF1DFF08FA
:10087000FF0003CF06E000B2C2179446042902D15C
:1008800040B2C1178C4600226146944506DA0A46FA
:100890000021404291418C462D2102E0210504D5E2
:1008A0002B216A461176012103E0E10701D02021C6
:1008B000F7E7019154E00A200BE0102009E0102036
:1008C000049000210420044308200591029003E0D5
:1008D00008200021059104906002410F022905D0F3
:1008E00001CF00229446032906D006E0FF1DFF0831
:1008F000FF0003CF8C4603E080B2042900D1C0B2D0
:100900000021019121072BD50399702906D0049A63
:100910001021059B4A401A4305D00EE040216A464B
:100920001176012108E06146014306D030216A4674
:1009300011760399517602210191049A0821059BB1
:100940004A401A430CD16146014301D1610707D5E2
:1009500030216A461176012101910299491E0291C6
:100960000399582904D037A103910FA90F910DE0E5
:1009700039A1F9E76146059B049AFFF70BFC039B3D
:100980008C469B5C0F9A521E0F9213706146014376
:10099000F0D10F9807A9081A20300390600704D5FA
:1009A000012000048443029801E001200290039991
:1009B000884201DD401A00E00020411802900198B1
:1009C00009180098401A0090E00306D42146149BB1
:1009D000139A009800F05AF886190020049008E055
:1009E00006A9085C149A139990470498401C761C39
:1009F000049001998842F3DBE0030CD52146149B57
:100A0000139A009800F042F8861904E0149A3020F6
:100A100013999047761C0299481E02900029F5DC34
:100A200008E00F980F990078491C0F91149A1399B8
:100A30009047761C0399481E03900029F1DCFBE6E1
:100A400009280100303132333435363738396162A4
:100A50006364656600000000303132333435363768
:100A6000383941424344454600000000F8B5044689
:100A700000251E461746880404D405E03946202088
:100A8000B0476D1C641EF9D52846F8BDFFB5044675
:100A9000002581B01E46C80301D5302700E020277D
:100AA000880404D505E038460399B0476D1C641EE0
:100AB000F9D5284605B0F0BD10B50446204600F033
:100AC000DBF800BA10BD000000BF00BF00BF00BFD0
:100AD00000BFBFF34F8F00BF00BF00BF06480749EC
:100AE000C86000BF00BF00BFBFF34F8F00BF00BF93
:100AF00000BF00BF00BFFDE70400FA0500ED00E005
:100B00003EB50446002000900190029002946A468F
:100B100000210248FFF7D8FF3EBD00000140000061
:100B200010B503460C4600BF0D480068002801D1EF
:100B3000082010BD00BF002A01D10720F9E7002BD3
:100B400001D10720F5E71868007C002801D00820B3
:100B5000EFE71968002008744C744A6100BFE8E7A9
:100B600048000020FFB581B00E4614461F462046BF
:100B70008107890F002901D1012100E0002100290E
:100B800002D1072005B0F0BD002C04D100201C4983
:100B900008600720F6E701F055F91A4807600320BE
:100BA0001949087016480460183400250CE0E90063
:100BB000134A1268881800210170417086704460E1
:100BC000182171430C196D1C032DF0DB00200F4917
:100BD00008600F4908700F4908701520FFF748FB9F
:100BE00003211520FFF7BCFB1520FFF75FFB0198E1
:100BF00001F0FEF801F0F6F8074908600020C1E7AF
:100C00004800002060000020440000204C0000202C
:100C10005C0000205D00002050000020FEB504466E
:100C20000D461746264600BF12480068002801D12D
:100C30000820FEBD00BF002C01D10820F9E7052DDA
:100C400001D20720F5E77069002801D10820F0E7FC
:100C5000707C012801D1284600E00020029001F0BC
:100C60009BFD009701902A463146029B01F002FC51
:100C7000DFE7000048000020014608680D4A0240F6
:100C800012090C4BDB4303401B011A4310460A4A6E
:100C900002409208084BDB4303409B001A43104676
:100CA000064A02405208054BDB4303405B001A43EF
:100CB00010467047F0F0F0F0CCCCCCCCAAAAAAAA8F
:100CC00010B5FF201430104908601049C87C104945
:100CD000096888470F481049486000200F4908619B
:100CE00001200F49086100BF0C4800690028FBD0B3
:100CF00000200A490861FF201830034908600120DC
:100D00000749486010BD000000120040C0050020E7
:100D1000400000201C17002000150040001100407A
:100D2000001000400020054908600120810708608C
:100D300000BF024800680028FBD070470001004057
:100D4000FEB51F480068002836D01D4800680568B9
:100D500001F048F801901B4804682146019801F011
:100D6000C5FAC61C18480078002801D101F04CF8DB
:100D7000AE4201D2284600E0304604192402240A7B
:100D8000204601F029F801F02DF800900199009813
:100D900001F0ACFAC71C2046019901F0A7FA87427E
:100DA00009D901F01FF8074601F016F82F20FFF7C8
:100DB000A1F901F0D5FB01E001F044F8FEBD00000F
:100DC0004C000020500000206400002010B500BF3F
:100DD000EFF30580C105C90D00291FD00A46103A5E
:100DE00050B200280CDA0E4B0407240F083CA4086C
:100DF000A4001B598407E40EE3401B069B0F0BE085
:100E0000084B032424021B198408A4001B598407DF
:100E1000E40EE3401B069B0FD8B210BD0420FCE794
:100E20001CED00E000E100E008B5002009231B22D2
:100E30000A2100901A2001F09BF808BD01461448D1
:100E40000078144A127890421DD011480078401C56
:100E50000F4A107010460078022801D1002010704F
:100E60000B48007880000C4A105808600B4A08684C
:100E700012688018094A1060104600680002000AD3
:100E80001060012070470020086000BFFAE70000F2
:100E90005C0000205D000020540000205000002075
:100EA00010B58AB028A00068099028A000680890B2
:100EB00027A103C907910690182227496846FFF722
:100EC00045F908216846C1740021017001720121B1
:100ED00041702248019000216846017500F04AFCEB
:100EE000044600BF002C02D020460AB010BD00BF4F
:100EF00009A800F0E9FC044600BF002C01D0204600
:100F0000F3E700BF08A800F0FDFC044600BF002C7A
:100F100001D02046E9E700BF012106A800F010FD3E
:100F2000044600BF002C01D02046DEE700BF512060
:100F300000F036FD044600BF002C01D02046D4E767
:100F400000BF2046D1E7000002030405C2C2C2C2AE
:100F500001C2C3C4C5C6C7C8EC2700007116000093
:100F6000F0B50346002420E0134E306806689E4228
:100F700003D90668F61A06601BE006689B1B066824
:100F80003419002606600C4E35680B4FC6693E606A
:100F9000C668002E08D00E193602360A4660C668AA
:100FA00086601668C661156000BF034800680028A7
:100FB000DAD100BFF0BD00004C00002070B504463F
:100FC0000D46E0B201F00AF8204670BD10B500F001
:100FD000F5FE002007E00102091A0A4A891882007A
:100FE000094B9950401C0828F5DB002007E001025E
:100FF000091A064A89188200054B9950401C082896
:10100000F5DB10BDD8050020D00D0020FC0D002020
:10101000F41500200C48008CC0B2012812D10A48F7
:10102000808C0007000F00280CD10748806AF0214F
:101030000840402806D10448C06A0840002801D171
:10104000012070470020FCE7C00F00F01948008C19
:10105000C0B201282CD11748808C0007000F00284F
:1010600026D11448806AF0210840002806D1114892
:10107000C06A0840002801D1012070470D48806AED
:10108000F0210840102806D10A48C06A084000280C
:1010900001D10120F1E70748806AF021084030289B
:1010A00006D10448C06A0840002801D10120E4E7C5
:1010B0000020E2E7C00F00F01348008CC0B2012806
:1010C0001FD11148808C0007000F002819D10E484D
:1010D000806AF0210840A02806D10B48C06A084069
:1010E000002801D1012070470748806AF02108409C
:1010F000D02806D10448C06A0840002801D1012048
:10110000F1E70020EFE70000C00F00F0F8B521483C
:1011100000680090204806782EE0F0001F4909681A
:101120004418257824E01820684361680F18681C6B
:10113000C5B2A078A84200D100253878022802D094
:10114000032812D103E0786801F05CF90EE007E0B3
:1011500010490868002101740E4AC169116000BF7E
:101160000C4800680028F3D100E000BF00BF00BFBA
:101170006078A842D7D100BF3046711ECEB2002899
:10118000CBD1044801680098814201D00120F8BD0C
:101190000020FCE74C000020440000204800002014
:1011A000FEB506463C48006801903C480078009037
:1011B00063E00098C0003A490968451856E0002EDF
:1011C00002D03446E66924E02978182359436A6836
:1011D00050182978491C29702978AA78914201D1A0
:1011E0000021297044680178012902D1217C00295D
:1011F00000D03BE081686160C168A1600169E16085
:101200004169A16127490978002901D00021616065
:1012100000BF254960680968401A0002000A234996
:10122000884208D220496068096801F05FF8A16827
:10123000401820600FE01C486168006801F056F813
:101240000746A068B84203D9A068C01B206001E02F
:101250000020206000BF00206060A060012020749A
:101260000020E061204601F097F800BF002EA6D1D3
:10127000287869788842A2D100BF0098411EC9B27F
:101280000091002895D1044801680198814201D05D
:101290000120FEBD0020FCE74C000020440000209F
:1012A000480000206500002050000020FFFF7F0064
:1012B000FFF738FDFFF7B8FD01F058F900F0AEFE7A
:1012C00000F00AF8FFF7ECFD00F082FB00F0EEFF03
:1012D00000E020BFFDE7000010B588B018222149CA
:1012E00002A8FEF733FF032002900220039004209F
:1012F0000490052005900021684601764176FF2183
:101300000177417700BF184A02A9184800F0A6F8F3
:101310000446002C04D000BF2046FFF7F1FB00BFBD
:1013200000BF1349134AFF23002004E000240C549B
:101330001454441CA0B29842F8DB00BF00BFFF2049
:101340000C4B02460A490090084800F03DF804465C
:10135000002C04D000BF2046FFF7D2FB00BF00BF27
:1013600008B010BD14280000D12000000C28000097
:10137000C0030020BF04002070B504460D46294676
:101380002046FFF729F800BFE106C90E012088407A
:101390000549086000BF00BFE106C90E0120884072
:1013A0000249086000BF70BD80E200E000E100E09B
:1013B0000146480F400701225207904201D1012007
:1013C00070470020FCE70000FFB581B00D461E46C7
:1013D00001980079182148431F49441800BF002E86
:1013E00002D10E2005B0F0BD00BF00BF002D01D11D
:1013F0000E20F7E700BF002D04D02846FFF7D8FFE6
:10140000002806D0002E06D03046FFF7D1FF002876
:1014100001D11020E6E7607D002806D0012814D015
:10142000022804D0032812D100E000BF00BFE5600D
:101430002661039820600A986060002701990122C4
:101440000868214600F0C6FE03E0082701E00327F4
:1014500000BF00BF3846C5E748180020F7B586B082
:1014600006460C463079182148436C4940180590CF
:1014700035680598007D002802D0082009B0F0BD2D
:10148000002C04D130791821484365494418207C48
:10149000032801D90720F1E70898002801D10E2080
:1014A000ECE72068FF280CD00021E07C019100903F
:1014B00020680B460A46039000F0FAFA2068049070
:1014C00002E00020C04304906068FF280BD0002099
:1014D00000900190606800231A461946039000F0BE
:1014E000E7FA676801E00027FF43002000900190C1
:1014F000A37CE06800221146039000F0D9FA002096
:1015000000900190A06800231A461946039000F04D
:10151000CFFAA3680498E168039105221202AA1881
:1015200093600521090269180F61052109026918F4
:10153000C86005221202AA180399516100BF002257
:101540001146284600F0EBFA00221146284600F02A
:10155000F2FA217C637C002B01D0012200E0002202
:101560001046002906D0012906D0022907D00329F8
:1015700008D000BF00BF08E00222104305E00422AB
:10158000104302E00622104300BF00BF05221202F2
:10159000AA18506500BF207D052109026918C86599
:1015A00000BF607D0B21C9016918086400BFFF21DD
:1015B0000531284600F0B0FAFF212931284600F015
:1015C000ABFA0420C10149590143C201515100BF86
:1015D0000021307918225043104A80184175317922
:1015E000182251430D4A8918089888600D48032134
:1015F00009026918486000BFA17D05203056FFF739
:10160000BBFE01210598017500BF022005210902DA
:101610006918086000BF002030E70000481800206B
:101620002C2800000204000010B50F2080020B4996
:10163000886000200A49087000F0C0FB2421094896
:10164000FEF79DFD09210848FEF799FD1420FEF7DD
:1016500019FE032005490860002010BD00F5014077
:101660000900002022180020181800200012004055
:1016700010B504462078002804D0012803D00228A1
:101680004AD101E048E047E0244800F0C9F80028CA
:1016900041D12348007800283DD120480078801DA2
:1016A00020490870862020490870102048701B4887
:1016B00080784006400E887018480078C870174837
:1016C0000278411D1848001DFEF740FD13480078C0
:1016D000C11C1548401CFEF787FF12490978891E76
:1016E000114A505476210F480078401E11540020B2
:1016F000012181400D4AD16000BF0120FEF7EAFCC4
:10170000002001218140094A916000BF0120044965
:10171000087000F0C7FC00BF00BF10BD70000020C3
:101720000400002000000020C0030020000500503D
:1017300010B5044600BF0D480078002801D10820EC
:1017400010BD00BF00BF002C01D10E20F8E700BF84
:101750000120FEF797FD064800682060002004493C
:1017600008600120FEF798FD0020E9E7080000204E
:101770002800002070B5044600BF002C01D10E20C7
:1017800070BD00BF1F480078002806D0FFF74CFF4F
:101790000546002D01D02846F2E71B496068086025
:1017A000182221461948FEF7D1FC0020184908608C
:1017B00024211848FEF7E3FC09211748FEF7DFFC57
:1017C00000F086FFFFF702FC00F060FD00F0C4FAB5
:1017D0000E48407C8107890F0120FEF785FD0B48EC
:1017E000807C8107890F1420FEF77EFD1420FEF710
:1017F00053FD0020094908700120024908700020AB
:10180000BEE700000800002010000020C0050020F6
:1018100028000020221800201818002009000020AD
:1018200010B5044600BF26480078002801D10820E2
:1018300010BD00BF00BF002C01D10E20F8E700BF93
:101840002048806A002801D10520F1E70120FEF739
:1018500019FD1C48406A80001A4908580078207019
:101860000846406A80000858407860700846406A20
:10187000800008588078A0700846406A80000858A8
:101880000079207122780846406A80000B4618587B
:10189000411D601DFEF75AFC0A48406A401C094978
:1018A0004862082801D3002048620648806A401E2A
:1018B000044988620120FEF7EFFC0020B8E7000031
:1018C00008000020F415002010B5044600BF0B48A6
:1018D0000078002801D0112010BD00BF00BF002CEF
:1018E00001D10E20F8E700BF042221460448FEF78C
:1018F0002DFC012000F07AFE0020EDE70900002019
:101900001400002010B5044600BF0B4800780028E2
:1019100001D0112010BD00BF00BF002C01D10E204E
:10192000F8E700BF042221460448FEF70FFC02201E
:1019300000F05CFE0020EDE7090000201800002008
:1019400070B505460C4600BF13480078002801D04A
:10195000112070BD00BF00BF002D01D10E20F8E79F
:1019600000BF00BF092C01DB0720F2E700BF2246C1
:1019700029460A48FEF7EAFB08480838047408209C
:10198000011BFF200841054908398874042000F034
:101990002DFE0020DDE70000090000201C000020D3
:1019A000014600BF08480078002801D01120704788
:1019B00000BF00BF7D2901D90720F8E700BF034A17
:1019C000D1740020F3E7000009000020140000207B
:1019D00010B500BF19480078002801D0112010BDB3
:1019E00000BF0020C04316498860002015490861E7
:1019F000154816490860FF20183015490860102066
:101A00000F49486004200D4908701248807C124933
:101A100008631048C07C8860104848600120FEF7C9
:101A20001DFC0120FEF738FC002006494860886054
:101A3000086101200A4948600020D0E70900002021
:101A40000013004000110040491B00003800002036
:101A50000012004014000020001500401C17002058
:101A600000100040F0B5059C55000D439E00354325
:101A700026023543069E36043543052636070727DA
:101A80003F02F6198700F551F0BDF0B5059C5500F1
:101A90000D439E00354326023543069E36043543EA
:101AA0000526360707273F02F6198700F551F0BDD6
:101AB000F0B5059C55000D439E0035432602354385
:101AC000069E360435430526360707273F02F619DA
:101AD0008700F551F0BD7CB505460C46002000900E
:101AE00023460246014601902846FFF7CEFF7CBD03
:101AF0001CB50446002000900346012211460190C7
:101B00002046FFF7C2FF1CBD02465058002801D0F6
:101B1000012070470020FCE7002242507047052357
:101B20001B02C318596305231B02C3189A6370472D
:101B300001224250704705231B02C3185964052334
:101B40001B02C3189A647047F8B5002500260127C8
:101B500060480068002802D1FFF7B2F8F8BD5E487F
:101B6000806A082802D3FFF7ABF8F7E75948806886
:101B700080005A4944185748C0682188884207D1D4
:101B8000574840784010A178884201D101260027AB
:101B9000534840784010A0704E48C068208051489B
:101BA000007D002805D04E484078C007C00F0028AF
:101BB00000D10125002D75D0FF201C304A49086056
:101BC00048480078002853D001285CD14748806AF3
:101BD000002840D04548406A800044490858407871
:101BE0003C498968884236D1E078002815D0002E1B
:101BF00013D13E48406A401C3C494862082801D342
:101C0000002048623948806A401E38498862384856
:101C1000006801210843364908600120E07033481C
:101C2000406A8000314908583249086009680878DC
:101C30003149096888472F48006800782F490870A3
:101C40002C48006802782B480168491D2B48801CED
:101C5000FEF77CFA07E00020E07027490968884712
:101C60000020264908701E484078244948700AE040
:101C70000020214909688847194800781F490870E1
:101C80000020487000BF00BF05201D4908701148A2
:101C900080681C49C862194848601B481B49086095
:101CA00002E0FFE7FFF70CF8002F10D0A178094AF7
:101CB0009268D0B200F0F2F8002808D00C48006812
:101CC000042108430A4908601420FEF7F9FA00BF0E
:101CD00044E7000000140040F41500202218002002
:101CE0001C170020C005002000120040D00D00206D
:101CF000280000200C0000204000002020160020BA
:101D00000900002000150040111D000038000020CF
:101D100010B5FF201830084908600849C87C0849F8
:101D20000968884707480849486008480849086022
:101D300004200849087010BD00120040C0050020B2
:101D4000400000201C17002000150040491B000027
:101D500038000020090000201348144951221201C4
:101D60008918086512491148801841650E48001D00
:101D70000E49891888650E49091D0C488018C165EF
:101D80000C480A49891808660749F039074880183D
:101D900041660848001D05498918886606490348B8
:101DA0008018C166704700000011004000F001403B
:101DB00000A0004040A10040001000400020044965
:101DC0000862486288620349086248628862704714
:101DD000D00D0020F4150020014908607047000074
:101DE000401501400148406870470000001501405F
:101DF00010B504460348846003211120FEF7B0FAB1
:101E000010BD00000015014010B5012000040A4972
:101E100048600949403948601120FEF729FA11202D
:101E2000FEF744FA0120054908602F20FEF762F909
:101E300001200349087010BD40130140001001400B
:101E40006400002010B51120012181400E4A11606C
:101E500000BF012000040D4988600C4940398860AA
:101E600001200B4948602F20FEF744F90120084962
:101E700088600020074908602F20FEF73BF900200A
:101E80000549087010BD000080E100E040130140EA
:101E900000100140500000206400002070B504468E
:101EA0000D462F48806A082857D22E48007801280E
:101EB0000ED12D480078FA2801DD002070BD2A4897
:101EC00000782749096A8900254A5158087012E0AC
:101ED00024484078002806D12149096A8900204A0F
:101EE0005158087007E01F48C07C1D49096A8900E5
:101EF0001B4A515808701A49096A8900184B5958E9
:101F00000A781946096A89005958481D1649891CDA
:101F1000FEF71CF91248006A800011490858447005
:101F20001248806840B2096A89000D4A5158887089
:101F30001046006A80001146085805710846006A7C
:101F4000401C0862082801D3002008620448806A07
:101F5000401C034988620120B0E70020AEE7000082
:101F6000F4150020C00500201C170020401500407B
:101F7000F8B507460C4615461E462046FFF7B8FD45
:101F800000213046FFF7A7FD1048C460466106985F
:101F900000280DD03846FFF7ABFD00212846FFF79B
:101FA0009AFD0A4805618760012008494031C862EE
:101FB00007480649486204200860012005498860F6
:101FC0000860002004498860F8BD0000002500403A
:101FD00000E0D70100200040002100400549C86111
:101FE00000BF0549C9690129FBD10021024AD1611D
:101FF00070470000002500400021004030B5C1B00E
:1020000004460D462A46214601A8FEF79FF8002007
:102010000149087041B030BD040000207CB50024A7
:102020000020009003460122114601902046FFF750
:1020300019FD00BF01240325002000902B46024615
:10204000014601902046FFF70DFD00BF0020012151
:102050008140024A916000BF7CBD00000005005035
:1020600010B5044603A0FEF7CDFA00200C49087015
:1020700010BD000074696D65725F64656275673AD2
:102080007370695F6F76657274696D655F74696D91
:1020900065725F68616E646C6572200D0A000000F5
:1020A0000400002070B50022622108480068FEF795
:1020B000B5FD044600BF2546002D04D000BF2846CC
:1020C000FEF71EFD00BF00BF70BD00000828000025
:1020D00007B582B06846007A012827D1002014494C
:1020E00008700398C1B21348FFF788FF12480078C0
:1020F000002813D01148007800280FD1104908702B
:102100000D4908700F4910480278002003E066234B
:102110000B54431C98B29042F9DB00BFFF20054BE3
:102120000246084900900948FFF74EF905B000BD86
:1021300003000020BF040020050000200100002053
:1021400002000020C0030020000000200C28000036
:1021500070B505460C46FF2129312846FFF7D4FC0F
:1021600000281FD0FF2129312846FFF7D5FC607DCC
:10217000012815D12068C2B22846E168FFF7DBFCD0
:102180006068C2B228462169FFF7C9FC28212846A9
:10219000FFF7CEFC02222146284600F01BF800E0A3
:1021A00000BF00BFFF2105312846FFF7ADFC002826
:1021B0000FD0FF2105312846FFF7AEFC607D0228D5
:1021C00005D103222146284600F004F800E000BFB4
:1021D00000BF70BD70B506460C46154665752146B4
:1021E000304600F001F870BDFEB505460C46607D36
:1021F000012804D0022807D0032843D11DE0242160
:102200002846FFF795FC3EE00020694608700190E3
:10221000029000BFA068002801D0012000E000204B
:102220000646002E03D100BFFEF76AFC00BF00BFC8
:10223000A368684607C8984725E0012069460870EA
:1022400000BF052000022818C06CC0B2019000BF7A
:10225000052000022818C06BC0B2029000BFA06821
:10226000002801D0012000E000200646002E03D106
:1022700000BFFEF745FC00BF00BFA368684607C863
:10228000984700E000BF00BFFEBD000004200449E5
:102290000861002088600348034908607047000017
:1022A00000A500400202000000A2004070B500221C
:1022B0000521090407480068FEF7B0FC044600BF8A
:1022C0002546002D04D000BF2846FEF719FC00BFAC
:1022D00000BF70BD042800000021034AD160012125
:1022E0008A07116170470000000100400246501A41
:1022F0000002000A7047000070B504460C480068F0
:10230000002810D00A4AA169606912689047054602
:1023100000BF2E46002E04D000BF3046FEF7F0FB73
:1023200000BF00BF02E06169A069884770BD00007E
:1023300060000020FEB5002001901148046811489B
:1023400007686846FEF77AFD0546FEF7DFFE06469B
:10235000002D05D001AA21460098FEF701FE0126B6
:102360000198FEF71DFF002800D00126002E02D0A4
:102370003846FEF7E5FC002003490870FEBD00006A
:10238000500000204C0000206500002010B51520F2
:10239000FDF7A0FF10BD000010B51949096800291C
:1023A00002D1174908602AE0154A016812681268CC
:1023B00091420DD81249096809680268891A104AC1
:1023C000126811600E490968C1610D49086016E084
:1023D00002680B4C2368216803E00C68121B0B4653
:1023E000C969002902D00C689442F6D3002902D0B2
:1023F0000C68A41A0C600260C161D86100BF10BDF6
:102400004C00002030B50246164C2168084604E016
:10241000904200D103E00146C0690028F8D100BF16
:10242000002800D130BD814211D10E4C2468E469EE
:102430000C4D2C602C462468002C08D101240A4D38
:10244000AC600024094D2C600124094D2C700368F8
:10245000C469CC61C869002802D00468E41804602B
:1024600000BFDFE74C0000200010014050000020BA
:1024700065000020FFB581B005460E461746E9000D
:10248000114A12688818694600F097F90446002C32
:1024900002D1042005B0F0BD012020706660FFF776
:1024A000A1FCA060E760049820610A986061E900DF
:1024B000054A126888186946097800F095F9FFF70F
:1024C00065FF0020E6E7000048000020F8B51F483F
:1024D0000068002839D00027FFF784FC00901C48D2
:1024E00001680098FFF702FF06461848056811E0EA
:1024F0002868B04200D90FE02868361A2868C71942
:102500002C46ED69207C002804D000202074204651
:10251000FFF7F2FE002DEBD100BF0E4800780E4908
:102520000978884209D10C480078401CC0B20A4999
:102530000870022801D10020087007480078800048
:1025400006490F50FFF722FF00BFF8BD4C000020E6
:10255000500000205C0000205D000020540000209E
:1025600010B51120FDF7B6FE10BD000070B500BF1C
:102570000023194A06211846FEF7F4FA054600BF63
:102580002E46002E04D000BF3046FEF7B9FA00BF39
:1025900000BF00BF114A01211148FEF7C1FA0446ED
:1025A00000BF2546002D04D000BF2846FEF7A8FA3C
:1025B00000BF00BF0B4A00210B48FEF7B1FA0446EA
:1025C00000BF2546002D04D000BF2846FEF798FA2C
:1025D00000BF00BF70BD0000B0010020D922000084
:1025E00004280000612000000828000010B50446FF
:1025F000E007C00F002804D00F48FEF75DFA0F492E
:10260000C86102202040002805D00B48001DFEF7BD
:1026100053FA0A4908620420204000280BD00648DB
:102620000830FEF729FB0549486203480C30FEF7E5
:1026300023FB0249886210BD1400002000150040F1
:102640001048007A104908610E48007A00280AD024
:10265000012804D002280AD0032810D10BE0302032
:102660000A4908600CE040200849086008E0FA20A8
:102670000649086004E040200449086000E000BF0B
:1026800000BF7047C0050020001500403400002046
:102690000B48407A0B4948630948407A022804D124
:1026A0000948C8630948886309E00548407A012859
:1026B00005D1FF200349C863FF20083088637047B5
:1026C000C005002000150040FFFF000021100100A0
:1026D00010B500F02BF8FFF7B3FF00F00DF8FFF78F
:1026E000D7FF0349C87C03490968884710BD00002B
:1026F000C00500204000002008480078002805D0D0
:10270000012807D106480749086004E00648054942
:10271000086000E000BF00BF70470000C005002057
:102720006D27000040000020412700000248807A09
:102730000249C86070470000C00500200015004035
:102740000749084A51610849497C491E0904012288
:1027500012061143020211430143024A916170477C
:102760000001010000150040140000200146074848
:10277000074A50610748407C401E000401221206AF
:102780001043FA30024A90617047000008000300CD
:10279000001500401400002010B5FEF717FB0128BB
:1027A00002D0032804D101E0002403E0012401E069
:1027B000022400BF00BF204610BD70B502460B4684
:1027C0005078401CC1B29078884200D10021107826
:1027D000884201D1002070BD1970507818267043CE
:1027E00055682C182046F6E741707047010000003C
:1027F0000000000000020400FA00030000010220B3
:102800000000000070010020900100200040004006
:1028100000040000040000000300000002000000AB
:10282000FF00000000000000FFFF030004000000A4
:102830000300000002000000FF0000000000000094
:10284000FFFF03006428000000000020700000006B
:1028500024060000D428000070000020F01F0000B3
:10286000340600000000000000000000000000002E
:102870000000000000000000E7E7E7E7C2C2C2C2B4
:10288000E7C2C3C4C5C6C7C80805FF0200000000F0
:102890000000000000000000000000000000000038
:1028A0000000000000000000000000000000000028
:1028B0000000000000000000000000000000000018
:1028C0000000000000000000000000000024F400F0
:0428D0000000000004
:04000005000000C136
:00000001FF
